:020000040800F2
:100000000000012001290108A9240108AF240108EA
:10001000B5240108BB240108C12401080000000028
:10002000000000000000000000000000C7240108DC
:10003000D524010800000000E3240108F124010890
:10004000512901085129010851290108FD240108FD
:1000500051290108112501085129010851290108D8
:100060005129010851290108512901085129010884
:100070005129010851290108512901085129010874
:100080005129010851290108512901085129010864
:100090005129010851290108512901081F2501088A
:1000A0005129010851290108512901085129010844
:1000B000512901080000000000000000512901083A
:1000C0005129010851290108512901085129010824
:1000D0005129010851290108512901085129010814
:1000E000512901083125010800000000000000002E
:1000F0000000000000000000000000000000000000
:1001000000000000512901080000000051290108E9
:1001100000000000000000005129010851290108D9
:1001200051290108512901085129010851290108C3
:10013000512901080000000000000000000000003C
:1001400051290108512901085129010851290108A3
:100150005129010851290108512901085129010893
:100160005129010851290108512901080000000006
:1001700051290108512901085129010800000000F6
:0C018000512901085129010851290108EA
:1001900010B5054C237833B9044B13B10448AFF3C1
:1001A00000800123237010BD8000002000000000AB
:1001B000A47D010808B5034B1BB103490348AFF305
:1001C000008008BD0000000084000020A47D01081C
:1001D00001F0FF01102A2BDB10F0070F08D010F8F8
:1001E000013B013A8B422DD010F0070F42B3F6D1FC
:1001F000F0B441EA012141EA014122F007047FF015
:1002000000070023F0E80256083C85EA010586EA6B
:10021000010685FA47F5A3FA87F586FA47F6A5FAA7
:1002200087F68EB9EED1F0BC01F0FF0102F00702B3
:1002300032B110F8013B013A83EA010313B1F8D15E
:100240000020704701387047002D06BF354603383F
:10025000073815F0010F07D1013015F4807F02BF78
:10026000013015F4C03F0130F0BC0138704700BFC9
:10027000034613F8012B002AFBD1181A01387047E6
:1002800081F0004102E000BF83F0004330B54FEA47
:1002900041044FEA430594EA050F08BF90EA020FB4
:1002A0001FBF54EA000C55EA020C7FEA645C7FEA47
:1002B000655C00F0E2804FEA5454D4EB5555B8BF6A
:1002C0006D420CDD2C4480EA020281EA030382EADB
:1002D000000083EA010180EA020281EA0303362D6D
:1002E00088BF30BD11F0004F4FEA01314FF4801C40
:1002F0004CEA113102D0404261EB410113F0004F52
:100300004FEA03334CEA133302D0524263EB430308
:1003100094EA050F00F0A780A4F10104D5F1200EA6
:100320000DDB02FA0EFC22FA05F2801841F1000101
:1003300003FA0EF2801843FA05F359410EE0A5F1D5
:1003400020050EF1200E012A03FA0EFC28BF4CF006
:10035000020C43FA05F3C01851EBE37101F00045BC
:1003600007D54FF0000EDCF1000C7EEB00006EEBC9
:100370000101B1F5801F1BD3B1F5001F0CD3490853
:100380005FEA30004FEA3C0C04F101044FEA4452AA
:1003900012F5800F80F09A80BCF1004F08BF5FEA31
:1003A000500C50F1000041EB045141EA050130BD11
:1003B0005FEA4C0C404141EB0101013C28BFB1F523
:1003C000801FE9D291F0000F04BF01460020B1FA6E
:1003D00081F308BF2033A3F10B03B3F120020CDA41
:1003E0000C3208DD02F1140CC2F10C0201FA0CF01F
:1003F00021FA02F10CE002F11402D8BFC2F1200C84
:1004000001FA02F120FA0CFCDCBF41EA0C01904039
:10041000E41AA2BF01EB0451294330BD6FEA040482
:100420001F3C1CDA0C340EDC04F11404C4F120026D
:1004300020FA04F001FA02F340EA030021FA04F37F
:1004400045EA030130BDC4F10C04C4F1200220FAD6
:1004500002F001FA04F340EA0300294630BD21FA14
:1004600004F0294630BD94F0000F83F4801306BFDA
:1004700081F480110134013D4EE77FEA645C18BFCE
:100480007FEA655C29D094EA050F08BF90EA020F65
:1004900005D054EA000C04BF1946104630BD91EA5D
:1004A000030F1EBF0021002030BD5FEA545C05D160
:1004B0004000494128BF41F0004130BD14F580049F
:1004C0003CBF01F5801130BD01F0004545F0FE4113
:1004D00041F470014FF0000030BD7FEA645C1ABF48
:1004E000194610467FEA655C1CBF0B46024650EA7F
:1004F000013406BF52EA033591EA030F41F40021AB
:1005000030BD00BF90F0000F04BF0021704730B530
:100510004FF4806404F132044FF000054FF0000105
:1005200050E700BF90F0000F04BF0021704730B5C6
:100530004FF4806404F1320410F0004548BF40429B
:100540004FF000013EE700BF42004FEAE2014FEAF0
:1005500031014FEA02701FBF12F07F4393F07F4FCB
:1005600081F06051704732F07F4208BF704793F0CE
:100570007F4F04BF41F40021704730B54FF46074E1
:1005800001F0004521F000411CE700BF50EA0102E4
:1005900008BF704730B54FF000050AE050EA01028D
:1005A00008BF704730B511F0004502D5404261EBFD
:1005B00041014FF4806404F132045FEA915C3FF43E
:1005C000D8AE4FF003025FEADC0C18BF03325FEADB
:1005D000DC0C18BF033202EBDC02C2F1200300FA8C
:1005E00003FC20FA02F001FA03FE40EA0E0021FAB1
:1005F00002F11444BDE600BF70B54FF0FF0C4CF49F
:10060000E06C1CEA11541DBF1CEA135594EA0C0F50
:1006100095EA0C0F00F0DEF82C4481EA030621EA8B
:100620004C5123EA4C5350EA013518BF52EA0335C6
:1006300041F4801143F4801338D0A0FB02CE4FF078
:100640000005E1FB02E506F00042E0FB03E54FF0A8
:100650000006E1FB03569CF0000F18BF4EF0010EA0
:10066000A4F1FF04B6F5007F64F5407404D25FEA9C
:100670004E0E6D4146EB060642EAC62141EA55514F
:100680004FEAC52040EA5E504FEACE2EB4F1FD0C91
:1006900088BFBCF5E06F1ED8BEF1004F08BF5FEA0F
:1006A000500E50F1000041EB045170BD06F00046C1
:1006B00046EA010140EA020081EA0301B4EB5C046E
:1006C000C2BFD4EB0C0541EA045170BD41F4801166
:1006D0004FF0000E013C00F3AB8014F1360FDEBF8B
:1006E000002001F0004170BDC4F10004203C35DA67
:1006F0000C341BDC04F11404C4F1200500FA05F3EA
:1007000020FA04F001FA05F240EA020001F000428A
:1007100021F0004110EBD37021FA04F642EB060100
:100720005EEA430E08BF20EAD37070BDC4F10C042A
:10073000C4F1200500FA04F320FA05F001FA04F2EE
:1007400040EA020001F0004110EBD37041F10001DA
:100750005EEA430E08BF20EAD37070BDC4F12005E5
:1007600000FA05F24EEA020E20FA04F301FA05F24D
:1007700043EA020321FA04F001F0004121FA04F2F5
:1007800020EA020000EBD3705EEA430E08BF20EAC5
:10079000D37070BD94F0000F0FD101F000464000FF
:1007A00041EB010111F4801F08BF013CF7D041EA81
:1007B000060195F0000F18BF704703F00046520085
:1007C00043EB030313F4801F08BF013DF7D043EA56
:1007D0000603704794EA0C0F0CEA135518BF95EA0C
:1007E0000C0F0CD050EA410618BF52EA4306D1D193
:1007F00081EA030101F000414FF0000070BD50EAB2
:10080000410606BF1046194652EA430619D094EA3B
:100810000C0F02D150EA013613D195EA0C0F05D125
:1008200052EA03361CBF104619460AD181EA030179
:1008300001F0004141F0FE4141F470014FF0000031
:1008400070BD41F0FE4141F4780170BD70B54FF0CC
:10085000FF0C4CF4E06C1CEA11541DBF1CEA13554C
:1008600094EA0C0F95EA0C0F00F0A7F8A4EB05042E
:1008700081EA030E52EA03354FEA013100F0888025
:100880004FEA03334FF0805545EA131343EA1263EE
:100890004FEA022245EA111545EA10654FEA0026A3
:1008A0000EF000419D4208BF964244F1FD0404F55C
:1008B000407402D25B084FEA3202B61A65EB0305B8
:1008C0005B084FEA32024FF480104FF4002CB6EB75
:1008D000020E75EB030E22BFB61A754640EA0C00F5
:1008E0005B084FEA3202B6EB020E75EB030E22BF35
:1008F000B61A754640EA5C005B084FEA3202B6EB76
:10090000020E75EB030E22BFB61A754640EA9C0034
:100910005B084FEA3202B6EB020E75EB030E22BF04
:10092000B61A754640EADC0055EA060E18D04FEAC2
:10093000051545EA16754FEA06164FEAC30343EA62
:1009400052734FEAC2025FEA1C1CC0D111F4801F2F
:100950000BD141EA00014FF000004FF0004CB6E728
:1009600011F4801F04BF01430020B4F1FD0C88BFC7
:10097000BCF5E06F3FF6AFAEB5EB030C04BFB6EBD2
:10098000020C5FEA500C50F1000041EB045170BDC5
:100990000EF0004E4EEA113114EB5C04C2BFD4EBF2
:1009A0000C0541EA045170BD41F480114FF0000E76
:1009B000013C90E645EA060E8DE60CEA135594EAF2
:1009C0000C0F08BF95EA0C0F3FF43BAF94EA0C0FF5
:1009D0000AD150EA01347FF434AF95EA0C0F7FF46A
:1009E00025AF104619462CE795EA0C0F06D152EABE
:1009F00003353FF4FDAE1046194622E750EA4106A2
:100A000018BF52EA43067FF4C5AE50EA41047FF4B2
:100A10000DAF52EA43057FF4EBAE12E74FF0FF3C17
:100A200006E000BF4FF0010C02E000BF4FF0010CE8
:100A30004DF804CD4FEA410C7FEA6C5C4FEA430C61
:100A400018BF7FEA6C5C1BD001B050EA410C0CBFB0
:100A500052EA430C91EA030F02BF90EA020F002012
:100A6000704710F1000F91EA030F58BF994208BF79
:100A700090422CBFD8176FEAE37040F00100704736
:100A80004FEA410C7FEA6C5C02D150EA013C07D18D
:100A90004FEA430C7FEA6C5CD6D152EA033CD3D0D8
:100AA0005DF8040B704700BF8446104662468C46D2
:100AB0001946634600E000BF01B5FFF7B7FF002805
:100AC00048BF10F1000F01BD4DF808EDFFF7F4FF2E
:100AD0000CBF012000205DF808FB00BF4DF808EDB9
:100AE000FFF7EAFF34BF012000205DF808FB00BFDC
:100AF0004DF808EDFFF7E0FF94BF012000205DF8FE
:100B000008FB00BF4DF808EDFFF7CEFF94BF0120B2
:100B100000205DF808FB00BF4DF808EDFFF7C4FFAB
:100B200034BF012000205DF808FB00BF4FEA4102FE
:100B300012F5001215D211D56FF47873B3EB62522F
:100B400012D94FEAC12343F0004343EA505311F056
:100B5000004F23FA02F018BF404270474FF00000E8
:100B6000704750EA013005D111F0004008BF6FF026
:100B7000004070474FF00000704700BF4A0011D29C
:100B800012F5001211D20DD56FF47873B3EB6252E7
:100B90000ED44FEAC12343F0004343EA505323FAF3
:100BA00002F070474FF00000704750EA013002D168
:100BB0004FF0FF3070474FF00000704753B94AB90B
:100BC000002908BF00281CBF4FF0FF314FF0FF3055
:100BD00000F08EB9ADF1080C6DE904CE00F024F8F8
:100BE000DDF804E0DDE9022304B07047D0B50C4B1A
:100BF000002206460F46FFF7FFFCFFF7BFFF044643
:100C0000FFF780FC074B0022FFF7F6FC02460B467D
:100C100030463946FFF738FBFFF7B0FF2146D0BD1D
:100C20000000F03D0000F0412DE9F047089E0D4620
:100C300004460F46002B4AD18A42944665D9B2FA3F
:100C400082F343B102FA03FCC3F120029F4020FA71
:100C500002F217439C404FEA1C4E1FFA8CF5B7FB7B
:100C6000FEF1220C0EFB117742EA074201FB05F070
:100C700090420AD91CEB020201F1FF3780F01C817F
:100C8000904240F2198102396244121AA4B2B2FBB6
:100C9000FEF00EFB102244EA024400FB05F5A542DB
:100CA0000AD91CEB040400F1FF3280F00781A54251
:100CB00040F204816444023840EA0140641B002190
:100CC0001EB1DC400023C6E90043BDE8F0878B423B
:100CD00008D9002E00F0ED800021C6E90005084685
:100CE000BDE8F087B3FA83F1002949D1AB4202D3C2
:100CF000824200F2F880841A65EB03020120174655
:100D0000002EE2D0C6E90047DFE702B9FFDEB2FA03
:100D100082F3002B40F090808A1A4FEA1C471FFA9A
:100D20008CFE0121B2FBF7F507FB1520220C42EAED
:100D300000420EFB05F0904208D91CEB020205F1BF
:100D4000FF3802D2904200F2CB804546121AA4B27C
:100D5000B2FBF7F007FB102244EA02440EFB00FE50
:100D6000A64508D91CEB040400F1FF3202D2A645C7
:100D700000F2BB801046A4EB0E0440EA05409FE75A
:100D8000C1F120078B4022FA07FC4CEA030C05FA5C
:100D900001F420FA07F3FD404FEA1C492343B5FB59
:100DA000F9F81FFA8CFE09FB18551C0C44EA05449F
:100DB00008FB0EF5A54202FA01F200FA01F00BD988
:100DC0001CEB040408F1FF3A80F08880A54240F251
:100DD0008580A8F102086444641B9DB2B4FBF9F35A
:100DE00009FB134445EA044403FB0EFEA64508D95B
:100DF0001CEB040403F1FF356CD2A6456AD9023B13
:100E0000644443EA0843A3FB0295A4EB0E04AC42FE
:100E1000C846AE4656D353D056B1B0EB080264EB89
:100E20000E0404FA07F7CA40CC401743C6E9007421
:100E300018460021BDE8F087C3F1200102FA03FC47
:100E400020FA01F225FA01F19D402A434FEA1C479E
:100E50001FFA8CFEB1FBF7F007FB1015110C41EAED
:100E6000054100FB0EF58D4204FA03F408D91CEB92
:100E7000010100F1FF382FD28D422DD90238614493
:100E8000491B92B2B1FBF7F507FB151142EA01428B
:100E900005FB0EF1914208D91CEB020205F1FF3867
:100EA00016D2914214D9023D6244521A45EA0041D9
:100EB00038E73146304608E73946E6E61046FBE6B5
:100EC0004845A9D2B9EB020865EB0C0E013BA3E73C
:100ED0004546EAE72B4694E74046D1E7D0467BE714
:100EE000023D624432E708460AE76444023842E7BA
:100EF000704700BF80B586B000AF3B4600221A6045
:100F00005A609A60DA601A615A61294B294A1A605C
:100F1000274B00225A60264B00229A60244B002265
:100F2000DA60234B00221A61214B04225A61204BC4
:100F300000221A761E4B00225A761D4B0122DA61DE
:100F40001B4B002283F82020194B00229A62184B79
:100F50000022DA62164B002283F83020144B002264
:100F60005A63134B002283F83820114811F03AFFDE
:100F70000346002B01D00BF029FA0F4B3B600623F0
:100F80007B600023BB607F23FB6004233B61002365
:100F90007B613B461946064812F066F80346002B73
:100FA00001D00BF013FA00BF1837BD4680BD00BF5B
:100FB0009C000020000004500200300480B5A2B064
:100FC00000AF786007F1740300221A605A609A60DB
:100FD000DA601A6107F1140360220021184616F046
:100FE000FFFD7B681B68364A934265D14FF480430E
:100FF0007B614FF04053BB6607F11403184614F0B1
:101000006DF80346002B01D00BF0E0F92D4BDB6CA3
:101010002C4A43F40053D3642A4BDB6C03F4005393
:101020003B613B69274BDB6C264A43F00403D364E6
:10103000244BDB6C03F00403FB60FB68214BDB6C8F
:10104000204A43F00103D3641E4BDB6C03F0010321
:10105000BB60BB680B237B670B23BB670023FB676D
:1010600007F174031946184812F06AFF04237B67DE
:101070000323BB670023FB6707F17403194612487B
:1010800012F05EFF20237B670B23BB670023FB6707
:1010900007F1740319464FF0904012F051FF4023BE
:1010A0007B670323BB670023FB6707F174031946C3
:1010B0004FF0904012F044FF00BF8837BD4680BD1E
:1010C00000000450001002400008004880B58CB0B9
:1010D00000AF07F11C0300221A605A609A60DA60C0
:1010E0001A61704BDB6C6F4A43F01003D3646D4B95
:1010F000DB6C03F01003BB61BB696A4BDB6C694AB4
:1011000043F00203D364674BDB6C03F002037B61A3
:101110007B69644BDB6C634A43F08003D364614BAF
:10112000DB6C03F080033B613B695E4BDB6C5D4A2B
:1011300043F00803D3645B4BDB6C03F00803FB60F4
:10114000FB68584BDB6C574A43F00103D364554BA3
:10115000DB6C03F00103BB60BB68524BDB6C514A94
:1011600043F00403D3644F4BDB6C03F004037B6058
:101170007B6800224FF6BE714B4813F05BF80022EB
:1011800041F60651494813F055F80022802148489D
:1011900013F050F8002242F29001464813F04AF84A
:1011A00001224021434813F045F84FF6BE73FB611E
:1011B00001233B6200237B620023BB6207F11C0317
:1011C0001946394812F0BCFE41F60653FB61012373
:1011D0003B6200237B620023BB6207F11C031946BC
:1011E000324812F0ADFE0823FB6100233B6200236E
:1011F0007B6207F11C0319462F4812F0A1FE8023E1
:10120000FB6101233B6200237B620023BB6207F189
:101210001C031946264812F093FE42F25003FB616C
:1012200001233B6200237B620023BB6207F11C03A6
:101230001946204812F084FE4FF40073FB614FF40E
:1012400088133B6200237B6207F11C0319464FF0B1
:10125000904012F075FE8023FB6101233B62022364
:101260007B620223BB6207F11C031946114812F08E
:1012700067FE4FF40043FB6100233B6200237B6267
:1012800007F11C031946094812F05AFE00220021FA
:10129000172012F0A6FB172012F0BFFB00BF30375B
:1012A000BD4680BD00100240001000480004004808
:1012B000000C004800080048001C004880B500AF42
:1012C0000B4B0C4A1A600A4B06225A60084B40F638
:1012D000FF72DA60064B40F6FF729A60044812F023
:1012E000E4FF0346002B01D00BF070F800BF80BD77
:1012F000000100200030004080B400AFBFF34F8FEA
:1013000000BF064BDB6803F4E0620449044B13435F
:10131000CB60BFF34F8F00BF00BFFDE700ED00E0E3
:101320000400FA0580B584B000AFF860B9607A6057
:101330007B68002B01D1002306E07A68B968F86861
:1013400016F024FC034600BF18461037BD4680BD8A
:1013500080B582B000AF78607868FEF789FF0346F9
:1013600018460837BD4680BD90B587B000AF78609D
:1013700039603B68DB0FFB75FB7D002B02D03B68BF
:101380005B4200E03B683B610A2138690BF023F8BF
:10139000F860FA7DFB68D41807F10803184615F0C9
:1013A00055FD07F108032D222146786815F080FECF
:1013B00007F10803184615F04BFDFB7D19467868C8
:1013C00015F00EFF03463A69F96818460BF042F82B
:1013D00000BF78681C37BD4690BD90B587B000AFA0
:1013E000F860C7E900230A22D7E900010BF088F86A
:1013F000044607F11403184615F028FD07F11403FD
:1014000000222146F86815F053FE07F11403184630
:1014100015F01EFD0021F86815F0E2FE0446F8689C
:1014200015F0A6FE0146D7E9002320460BF0CAF8C6
:1014300000BFF8681C37BD4690BD80B483B000AFD4
:101440007860012318460C37BD465DF8047B704771
:1014500080B598B000AF7860396007F12403184672
:1014600015F0F4FC07F1240207F10C032C4918468F
:1014700016F0A8F907F12403184615F0E9FC78687E
:1014800015F008FE3B68FB653B68002B25D125491C
:10149000786815F0E6FF20E03B6803F00F03BB65BA
:1014A000BA6D07F10C031146184615F096FE034677
:1014B000197807F128037A6818460BF0F7F807F156
:1014C00028031946786815F022FE07F1280318460C
:1014D00015F011FE3B681B093B603B68002BDBD11C
:1014E000FB6D0E2B11D807F140037A680D491846A1
:1014F0000BF01AF907F140031946786815F007FE5A
:1015000007F14003184615F0F6FD00BF07F10C0384
:10151000184615F0F0FD00BF78686037BD4680BD05
:10152000C07D0108D47D0108B0B59AB000AF7861E4
:1015300087ED020B39611346FB71786915F0AAFD3E
:101540004FF000024FF00003D7E90201FFF7C6FA9F
:101550000346002B09D04249786916F01DF8BC6893
:10156000FB6883F00045C7E90245D7E90201FFF7B0
:101570003DFB02460B46C7E91423FB79002B09D03B
:10158000D7E914230A2A73F1000303D23549786995
:1015900016F002F807F11C01D7E914230846FFF7FB
:1015A0001CFF07F11C031946786915F0CBFF07F102
:1015B0001C03184615F09FFD3B69002B4ADD2A49A4
:1015C000786915F0E9FFD7E91401FEF7DFFF02465D
:1015D0000B46D7E90201FEF757FE02460B46C7E964
:1015E00018230023FB6531E04FF000021F4BD7E9C1
:1015F0001801FFF701F802460B46C7E91823D7E99F
:101600001801FFF793FA0346FB6407F13403F96C02
:101610001846FFF7A9FE07F134031946786915F05B
:1016200091FF07F13403184615F065FDF86CFEF7DD
:1016300079FF02460B46D7E91801FEF725FE024660
:101640000B46C7E91823FB6D0133FB65FA6D3B6957
:101650009A42C9DB00BF78696837BD46B0BD00BF9C
:10166000D87D0108D47D0108DC7D010800002440FC
:101670002DE9B0438EB000AF78604FF000024FF01C
:101680000003C7E90C234FF00002634BC7E90A23AC
:10169000002387F8273000233B620023FB770123D8
:1016A000BB77786815F094FD034683F00103DBB245
:1016B000002B09D00021786815F08FFD03461B78B8
:1016C0002D2B01D1012300E00023002B01D00123A9
:1016D000FB777B68BB61B86915F044FD03463B614D
:1016E000B86915F041FD0346FB606DE007F110039A
:1016F00018460BF081F803461B78FB75FB7D2D2BFC
:101700005AD0FB7D2E2B03D1012387F8273056E0DA
:10171000FB7D2F2B4BD9FB7D392B48D897F82730F1
:10172000002B21D03B6A01333B624FF000023B4B60
:10173000D7E90A01FFF78AF802460B46C7E90A23F0
:10174000FB7D303B1846FEF7EDFED7E90A23FEF796
:1017500053FF02460B46D7E90C01FEF797FD024600
:101760000B46C7E90C2319E04FF000022B4BD7E9D9
:101770000C01FEF741FF02460B4690469946FB7D61
:10178000303B1846FEF7CEFE02460B464046494621
:10179000FEF77CFD02460B46C7E90C23BB7F002BFE
:1017A0000CD0FB7D302B09D00023BB7706E04FF037
:1017B00000024FF0000325E000BF00E000BF07F18A
:1017C000100318460BF008F807F10C0207F110039C
:1017D000114618460AF0E8FF0346002B86D1BB7F6E
:1017E000002B04D04FF000024FF000030AE0FB7F13
:1017F000002B05D03C6B7B6B83F00045C7E90C45A3
:10180000D7E90C2343EC172BB0EE470AF0EE670A3A
:101810003837BD46BDE8B0830000F03F00002440EB
:1018200080B58AB000AFF860B9607A60FB68D3F821
:101830008030202B0CBF01230023DBB2002B00F0F3
:101840000081FB6893F87830012B01D10223F9E085
:10185000FB68012283F87820FB680022C3F884200B
:10186000FB682222C3F88020FB6801221A6611F06F
:10187000D9F83862FB684FF6FE72A3F85820FB686F
:101880004FF6FE72A3F85A20FB689B68B3F5805FA1
:101890000ED1FB681B69002B05D1FB6840F2FF12DB
:1018A000A3F85C202DE0FB68FF22A3F85C2028E071
:1018B000FB689B68002B0DD1FB681B69002B04D1D2
:1018C000FB68FF22A3F85C201BE0FB687F22A3F8E3
:1018D0005C2016E0FB689B68B3F1805F0DD1FB686C
:1018E0001B69002B04D1FB687F22A3F85C2008E071
:1018F000FB683F22A3F85C2003E0FB680022A3F80A
:101900005C20FB68B3F85C30FB83FB689B68B3F535
:10191000805F0AD1FB681B69002B06D100237B6224
:10192000B86815F03DFEB86105E0B86815F038FEFE
:1019300078620023BB61FB68002283F878206FE0A7
:10194000FB681B68DB6903F01003102B0CBF01233D
:101950000023DBB2002B14D0FB681B6810221A6234
:10196000B86815F005FC0346002B14BF01230023C3
:10197000DBB2002B05D0FB682022C3F880200023B7
:1019800060E0FB681B68DB6903F02003202B0CBFC1
:1019900001230023DBB2002B28D07B6A002B0ED161
:1019A000FB681B689B8C9BB2DAB2FB8BDBB21340EB
:1019B000BB75BB7D1946B86815F046FC0DE0FB68A9
:1019C0001B689B8C9BB2DAB2FB8BDBB21340FB75BE
:1019D000FB7D1946B86815F037FCFB68B3F85A3040
:1019E0009BB2013B9AB2FB68A3F85A207B68B3F123
:1019F000FF3F15D011F016F802463B6AD31A7A68F9
:101A00009A4202D37B68002B01D1012300E000231E
:101A1000002B05D0FB682022C3F88020032311E0AF
:101A2000FB68B3F85A309BB2002B14BF012300238C
:101A3000DBB2002B84D1FB682022C3F88020002376
:101A400000E0022318462837BD4680BD80B483B02D
:101A500000AF786039607B683A681A607B68184626
:101A60000C37BD465DF8047B704780B483B000AF8F
:101A700078607B681B68002B0CBF01230023DBB25E
:101A800018460C37BD465DF8047B704780B582B0C0
:101A900000AF78607B681B68002B06D07B681B68F2
:101AA0001846FEF7E5FB034600E00023184608371A
:101AB000BD4680BD80B483B000AF786039607B687C
:101AC0001A683B6813441B7818460C37BD465DF80E
:101AD000047B704780B582B000AF786039607B6866
:101AE00039681846FFF7B2FF7B6818460837BD46CD
:101AF00080BD80B584B000AF786007F10C037968D1
:101B00001846FFF7E7FFFB6818461037BD4680BD53
:101B100080B485B000AFF860B9607A60FB68BA68DD
:101B20001A60FB687A685A60FB6818461437BD462D
:101B30005DF8047B704780B483B000AF78607B6849
:101B40001B68002B0CBF01230023DBB218460C37A7
:101B5000BD465DF8047B704780B483B000AF786009
:101B60007B685B6818460C37BD465DF8047B7047A0
:101B700080B483B000AF786039607B681A683B68D6
:101B800013441B7818460C37BD465DF8047B70473C
:101B900080B483B000AF786000BF18460C37BD46F4
:101BA0005DF8047B704780B483B000AF78607B68D9
:101BB00000221A607B6800225A607B6801221A7238
:101BC0007B6818460C37BD465DF8047B704780B5CE
:101BD00084B000AFF860B9601346FB71FB68BA6867
:101BE0001A60BB68002B04D0B868FEF741FB0346BF
:101BF00000E00023FA685360FB68FA791A72FB6808
:101C000018461037BD4680BD80B485B000AFF8607F
:101C1000B9607A60FB70FB68BA681A60FB687A6822
:101C20005A60FB68FA781A72FB6818461437BD468A
:101C30005DF8047B704780B483B000AF78607B6848
:101C40001B6818460C37BD465DF8047B704780B4AE
:101C500083B000AF78607B681B7A012B0CBF012337
:101C60000023DBB218460C37BD465DF8047B704795
:101C700080B483B000AF78607B685B6818460C372F
:101C8000BD465DF8047B704780B483B000AF7860D8
:101C90007B681B68002B14BF01230023DBB21846AE
:101CA0000C37BD465DF8047B7047B0B582B000AF1D
:101CB000786039607C683868FFF7BDFF0546386892
:101CC000FFF7D6FF03461A4629462046FFF720FFB6
:101CD0003868FFF7BCFF03461A467B681A727B68B8
:101CE00018460837BD46B0BD80B582B000AF7860F9
:101CF000396039687868FFF7D8FF78680837BD46DB
:101D000080BD80B483B000AF78607B681B681846E4
:101D10000C37BD465DF8047B704780B483B000AFDC
:101D200078607B6818460C37BD465DF8047B7047C9
:101D300080B483B000AF78607B6818460C37BD462E
:101D40005DF8047B704780B483B000AF78607B6837
:101D5000B3F90A30002B06D07B68B3F90A301B01B7
:101D60007A68134400E0002318460C37BD465DF83E
:101D7000047B704780B582B000AF78607868FFF769
:101D8000E2FF034618460837BD4680BD80B483B0E5
:101D900000AF786039603B68002B05D03A687B68FB
:101DA000D31A1B111AB200E000227B685A8100BFCF
:101DB0000C37BD465DF8047B704780B483B000AF3C
:101DC000786039603A687B68D31A1B111AB27B6855
:101DD0005A8100BF0C37BD465DF8047B704780B563
:101DE00084B000AFF860384680E80E003B461846E5
:101DF000FFF72DFF0346002B07D0FB681B7A03F08B
:101E00007F03DAB2FB681A7206E0FB681B7A63F0A4
:101E10007F03DAB2FB681A723B461846FFF70BFFE6
:101E20000246FB68DA6000BF1037BD4680BD80B453
:101E300083B000AF78607B68DB6818460C37BD461E
:101E40005DF8047B704780B483B000AF78607B6836
:101E50001B7A5BB2DBB2DB09DBB218460C37BD463E
:101E60005DF8047B704780B483B000AF78607B6816
:101E700000225A817B6800221A727B680022DA6095
:101E800000BF0C37BD465DF8047B704780B485B059
:101E900000AFF860B9607A60FB68BA681A60FB68E6
:101EA000BA685A60BB68002B03D0BA687B681344D9
:101EB00000E00023FA689360BB68002B03D0BA6887
:101EC0007B68134400E00023FA68D360FB680022BB
:101ED0001A74FB6818461437BD465DF8047B7047DA
:101EE00080B483B000AF78607B681B7C18460C37E9
:101EF000BD465DF8047B704780B582B000AF786066
:101F000078680AF02BFD034618460837BD4680BDA9
:101F100080B485B000AFF860B9607A60FB685A6839
:101F2000BB681A60FB689A68FB685B68D31A1A463C
:101F30007B681A6000BF1437BD465DF8047B7047AC
:101F400080B586B000AF786039607B68596807F16A
:101F500008033A6818460AF00EFD07F1080319460F
:101F600078680AF019FD78617B69002B01D07B69E4
:101F700013E07B685B683B617B685A683B681A4486
:101F80007B685A607B685B68591C7A6851600022E4
:101F90001A70786800F03DF83B6918461837BD465E
:101FA00080BD80B483B000AF78607B6801221A7472
:101FB00000BF0C37BD465DF8047B704780B483B02A
:101FC00000AF78607B681A687B685A607B68DA6863
:101FD0007B689A607B6800221A7400BF0C37BD468C
:101FE0005DF8047B704780B483B000AF78603960DF
:101FF0007B685A683B681A447B689B689A4294BF26
:1020000001230023DBB218460C37BD465DF8047B84
:10201000704780B483B000AF786000BF0C37BD4616
:102020005DF8047B704780B584B000AF786039609C
:1020300039687868FFF7D7FF034683F00103DBB206
:10204000002B04D07B6801221A7400230CE07B680B
:102050005B68FB607B685A683B681A447B685A601F
:102060007868FFF7D6FFFB6818461037BD4680BD7D
:1020700080B582B000AF7860396039687868FFF762
:10208000B2FF034683F00103DBB2002B04D07B6870
:1020900001221A74002308E07B689A683B685B425F
:1020A0001A447B689A607B689B6818460837BD466F
:1020B00080BD80B483B000AF78607B6800221A7264
:1020C0007B6818460C37BD465DF8047B704780B5C9
:1020D00082B000AF7860786800F029F80346002BE2
:1020E00001D07B6800E0002318460837BD4680BD5C
:1020F00080B582B000AF78607868FFF7E8FF0346EC
:1021000018460837BD4680BD80B483B000AF786004
:102110007B681B7A03F00803002B14BF0123002304
:10212000DBB218460C37BD465DF8047B704780B4BF
:1021300083B000AF78607B681B7A03F02003002B2C
:1021400014BF01230023DBB218460C37BD465DF8EF
:10215000047B704780B582B000AF7860786800F08B
:1021600094F80346002B0CBF01230023DBB2184672
:102170000837BD4680BD80B582B000AF7860786812
:10218000FFF7C2FF034683F00103DBB218460837AE
:10219000BD4680BD80B582B000AF78600B46FB7055
:1021A0000621786800F080F87B68FA781A7000BF22
:1021B0000837BD4680BD80B584B000AFF86087EDBC
:1021C000000B0C21F86800F06FF8F968D7E90023DC
:1021D000C1E9002300BF1037BD4680BD80B582B085
:1021E00000AF78600021786800F05EF800BF083723
:1021F000BD4680BD80B584B000AFF860384680E849
:102200000E003B461846FFF722FD0346002B04D084
:102210000421F86800F048F803E00521F86800F0B0
:1022200043F83B461846FFF706FD0246FB681A6076
:102230003B461846FFF71CFD0246FB685A6000BF8C
:102240001037BD4680BD80B582B000AF78604021B8
:10225000786800F029F87B68184600F086FA7B68F9
:1022600018460837BD4680BD80B582B000AF7860A3
:102270002021786800F018F87B68184600F075FA9D
:102280007B6818460837BD4680BD80B483B000AF78
:1022900078607B681B7A03F07F03DBB218460C374B
:1022A000BD465DF8047B704780B483B000AF7860B2
:1022B0000B46FB707B681B7A23F07F03DAB27B68E6
:1022C0001A727B681A7AFB781343DAB27B681A7247
:1022D00000BF0C37BD465DF8047B704780B483B007
:1022E00000AF78607B6800221A607B6818460C3764
:1022F000BD465DF8047B704780B483B000AF786062
:1023000039607B683A681A607B6818460C37BD46AE
:102310005DF8047B704780B483B000AF78607B6861
:102320001B6818460C37BD465DF8047B704780B4C7
:1023300085B000AFF860B9607A60FB687A681A60AF
:10234000FB68BA685A60FB6818461437BD465DF8EA
:10235000047B704780B483B000AF786039607B68DD
:102360003A681A607B6818460C37BD465DF8047BF6
:10237000704780B584B000AF78600023FB6006E052
:10238000FB680133FB607868FFF7F4FC78607B68DA
:10239000002BF5D1FB6818461037BD4680BD80B4D0
:1023A00083B000AF78607B6818460C37BD465DF897
:1023B000047B704780B483B000AF78607B680022F4
:1023C0001A607B6818460C37BD465DF8047B704781
:1023D00080B483B000AF786039607B683A681A6077
:1023E0007B6818460C37BD465DF8047B704780B5A6
:1023F00084B000AF78607B681B681846FFF798FCD4
:10240000024607F10C0311461846FFF775FFFB68FB
:1024100018461037BD4680BD80B483B000AF7860E9
:1024200039607B681A683B681B689A420CBF0123BD
:102430000023DBB218460C37BD465DF8047B7047BD
:1024400080B582B000AF78607B681B681846FFF7E4
:1024500091FC02467B681A607B6818460837BD46C7
:1024600080BD90B587B000AF786039607B68184652
:10247000FFF799FB7B680C331846FFF72FFF3B688B
:10248000002B28D03868FFF7D2FC04463868FFF7E5
:10249000DAFC0346002B01D0002200E0012207F104
:1024A000080321461846FFF792FB7B681A4607F19E
:1024B000080303CB106051601B7813723868FFF774
:1024C00037FC024607F1140311461846FFF714FFC4
:1024D0007B687A69DA607B6818461C37BD4690BD18
:1024E00080B483B000AF786039607B683A6807CA0F
:1024F00083E8070078680C37BD465DF8047B7047B9
:1025000080B483B000AF78607B68DB6818460C3716
:10251000BD465DF8047B704780B582B000AF78603F
:1025200039607B6839681846FFF79BFF7B6818465F
:102530000837BD4680BD80B483B000AF78607B684B
:1025400018460C37BD465DF8047B704780B483B0F5
:1025500000AF78607B6800221A607B6818460C37F1
:10256000BD465DF8047B704780B483B000AF7860EF
:1025700039607B683A681A607B6818460C37BD463C
:102580005DF8047B704780B582B000AF7860396039
:102590003B681B6819467868FFF7BEFF7868083704
:1025A000BD4680BD80B483B000AF786039607B6881
:1025B0001A683B681B689A4214BF01230023DBB2F0
:1025C00018460C37BD465DF8047B704780B582B075
:1025D00000AF78607B681B681846FFF7CBFB0246AC
:1025E0007B681A607B6818460837BD4680BD80B49A
:1025F00083B000AF786039607B683A681A607B68A6
:1026000018460C37BD465DF8047B704780B582B034
:1026100000AF78607B681846FFF7D0FC7B68183302
:102620001846FFF7DBFD00BF0837BD4680BD80B50B
:1026300084B000AFF860B9607A60FB687A68B96806
:102640001846FFF723FCFB6818331846FFF731FDE7
:10265000FB6818461037BD4680BD80B483B000AF1C
:1026600078607B6818460C37BD465DF8047B704780
:1026700080B584B000AF78607B6803F1180207F181
:102680000C0311461846FFF737FEFB681846103753
:10269000BD4680BD80B483B000AF78607B681846CB
:1026A0000C37BD465DF8047B704780B483B000AF43
:1026B00078607B68183318460C37BD465DF8047B9C
:1026C000704780B483B000AF78607B6818331846D9
:1026D0000C37BD465DF8047B704780B483B000AF13
:1026E00078607B68183318460C37BD465DF8047B6C
:1026F000704780B584B000AF786039603868FFF704
:10270000FBFBF860FB68002B01D1002317E07B681E
:102710005B68002B09D07B685B68F9681846FFF797
:102720004CFB7B68FA685A6005E07B68FA681A60BF
:102730007B68FA685A60F868FFF795FBFB681846F3
:102740001037BD4680BD80B582B000AF786039607B
:1027500039687868FFF7CDFF03461846FFF71FFE7C
:10276000034618460837BD4680BD80B483B000AF2D
:1027700078607B6800221A607B6800225A6000BF84
:102780000C37BD465DF8047B704780B584B000AF60
:10279000786039607B681B68FB600BE0F868FFF7C6
:1027A000D2FAB860BA683B689A4201D1FB6805E08A
:1027B000BB68FB60FB68002BF0D100231846103784
:1027C000BD4680BD80B584B000AF786039603B689D
:1027D000002B1AD039687868FFF7D7FFF86038689F
:1027E000FFF7B1FAB860FB68002B04D0B968F8684D
:1027F000FFF7CCFA02E07B68BA681A60BB68002B6E
:1028000004D17B68FA685A6000E000BF1037BD460B
:1028100080BD80B582B000AF78607B681B681846C9
:10282000FFF7A7FD034618460837BD4680BD80B5B3
:1028300084B000AF0346FB71012000F035F8F8606A
:1028400002E0FB680233FB60FB681B78002B05D0BD
:10285000FB6801331B78FA799A42F2D1FB681B7846
:1028600018461037BD4680BD80B584B000AF034622
:10287000FB71002000F018F8F860FB681B78002B53
:1028800001D100230CE0FB681B78FA799A4203D14E
:10289000FB6801331B7803E0FB680233FB60ECE765
:1028A00018461037BD4680BD80B483B000AF0346E4
:1028B000FB71FB79002B01D0022300E00023044AC6
:1028C000134418460C37BD465DF8047B704700BFC3
:1028D000EC7D010880B584B000AF786039603B467C
:1028E0001846FFF718FD034600BFFB60FB68002B8E
:1028F00005D07B68F968184600F016FD04E0012257
:1029000000217868FFF763F978681037BD4680BD0D
:1029100090B587B000AF7860396007F10C03796833
:102920001846FFF7D7FF00BF07F10C031846FFF763
:10293000ABF90346002B11D007F10C031846FFF743
:102940007AF9044607F10C031846FFF791F903469C
:102950001A462146386814F06BFD03E03968786840
:102960000AF089F800BF1C37BD4690BD80B483B023
:1029700000AF7860012318460C37BD465DF8047B34
:10298000704780B483B000AF786039607B683A6884
:102990001A607B6818460C37BD465DF8047B7047AB
:1029A00080B596B000AF786039603B687B647B6C23
:1029B000BB617B681B68BB64BB6CFB61FB697B61B3
:1029C000BA697B699A4201D1012398E0BB69002B67
:1029D00002D07B69002B01D1002390E007F118039E
:1029E0007B657B6D1B68002B06D107F12803184619
:1029F000FFF7E0FCBB6A0CE07B6D1B681846FFF735
:102A000080F9024607F12C0311461846FFF7E0FC57
:102A1000FB6A3B617B69002B06D107F13003184646
:102A2000FFF7C8FC3B6B0BE07B691846FFF769F9C1
:102A3000024607F1340311461846FFF7C9FC7B6BC9
:102A4000FB6007F118033B6507F120031846FFF709
:102A5000B1FC3B6A3B6407F1400207F110031146E9
:102A60001846FFF7D9FC034687F84F3007F12403D7
:102A70001846FFF79FFC7B6AFB6307F13C0207F1F6
:102A80000C0311461846FFF7C7FC034687F84E3083
:102A900097F84F30002B05D097F84E30002B01D01F
:102AA00001232CE097F84F30002B03D197F84E30DC
:102AB000002B01D0002322E007F110031846FFF796
:102AC00096FC0346BB6307F10C031846FFF78FFC27
:102AD000024607F138031146184609F09EFF0346E7
:102AE000002B01D000230AE007F110031846FFF77E
:102AF000A7FC07F10C031846FFF7A2FCA1E7002B87
:102B000001D0012300E0002318465837BD4680BDA0
:102B100080B483B000AF786039607B683A681A602F
:102B20007B6818460C37BD465DF8047B704780B55E
:102B30009EB000AF7860396007F114033968184619
:102B4000FFF755FD7B681A6807F118031146184610
:102B5000FFF74DFDBB693B617A693B699A4201D140
:102B600001239EE07B69002B02D03B69002B01D141
:102B7000002396E000237B6707F114033B673B6F5C
:102B80001B68002B06D107F130031846FFF7DEFC67
:102B90003B6B0CE03B6F1B681846FFF7B2F8024630
:102BA00007F1340311461846FFF7DEFC7B6BFB6030
:102BB00051E007F1580307F10C0211461846FFF7E0
:102BC000E2FC07F158031846FFF7B5FC0346184628
:102BD000FFF796FC0346BB6607F13C0307F10C02C6
:102BE00011461846FFF7CFFC07F13C031846FFF7E4
:102BF000A2FC024607F14C0311461846FFF770FC91
:102C000007F1240307F14C021146184609F018FF9A
:102C100007F1100007F124030ECB0AF0C2FB0246B5
:102C200007F1200311461846FFF766FB3B6A1A4678
:102C300007F168031146184609F0EFFE0346002B22
:102C400001D000232DE07B6F01337B6707F10C037C
:102C50001846FFF7BBFC07F11403FB6607F11C03E2
:102C60001846FFF773FCFB69BB6307F1380207F1F5
:102C70000C0311461846FFF795FC0346002B98D12C
:102C80003B69002B05D03B691846FFF7C2FD0346A0
:102C900001E0002300BF7A6F9A420CBF012300239A
:102CA000DBB2002B01D0012300E000231846783767
:102CB000BD4680BD80B485B000AFF860B9607A6071
:102CC000FB68BA681A60FB687A685A60FB68184645
:102CD0001437BD465DF8047B704780B586B000AF01
:102CE000F860B9607A60FB685B687A689A4202D9DA
:102CF000FB685B6800E07B687B61FB681B687A6946
:102D00001946B86814F042FF38613B69002B01DABC
:102D1000042305E03B69002B01DD022300E00123D1
:102D200018461837BD4680BD80B483B000AF7860C8
:102D300039607B683A681A607B6818460C37BD4674
:102D40005DF8047B704780B584B000AF786039606F
:102D500007F10C0339681846FFF713FE07F10C035F
:102D60001946786809F095FE034618461037BD46A7
:102D700080BD80B584B000AF7860396007F10C0386
:102D800039681846FFF7C4FE07F10C031946786846
:102D900009F09BFE034618461037BD4680BD80B53E
:102DA00086B000AFF86087ED000B07F1100397EDD8
:102DB000000B184609F0A5FE07F110031946F86844
:102DC00009F0B1FE034618461837BD4680BD80B5F0
:102DD00086B000AFF860B9607A6007F11403B96893
:102DE000184609F0BCFE07F114031946F86809F00B
:102DF000C5FE034618461837BD4680BD80B586B06F
:102E000000AFF860B9607A6007F110037A68B968BA
:102E10001846FFF74FFF07F110031946F86809F04D
:102E2000C9FE034618461837BD4680BD80B586B03A
:102E300000AFF860C7E9002307F11001D7E90023CC
:102E4000084609F0D3FE07F110031946F86809F0A7
:102E5000DFFE034618461837BD4680BD80B586B0F4
:102E600000AFF860C7E9002307F11001D7E900239C
:102E7000084609F0E9FE07F110031946F86809F061
:102E8000F5FE034618461837BD4680BD80B584B0B0
:102E900000AF78600B46FB70FA7807F10C0311461F
:102EA000184609F0FFFE07F10C031946786809F08F
:102EB00009FF034618461037BD4680BD80B584B073
:102EC00000AF786007F10C031946786809F016FF27
:102ED000034618461037BD4680BD80B483B000AFAE
:102EE0000346FB71FB792F2B04D9FB79392B01D8D1
:102EF000012300E0002318460C37BD465DF8047B33
:102F000070470000000000002DE9B04F2DED028B4E
:102F1000A6B000AF78653965002387F897307B6DE0
:102F20001B782B2B08D02D2B0AD1012387F8973043
:102F30007B6D01337B6503E07B6D01337B6500BFF7
:102F40007B6D1B781846FFF7C8FF034683F001032B
:102F5000DBB2002B05D07B6D1B782E2B01D001231B
:102F600000E00023002B01D00023D5E14FF0000248
:102F70004FF00003C7E922230023A7F886304FF063
:102F8000FF324FF0FF33C7E91C2354E07B6D1B7801
:102F9000303B87F86F30D7E9222312F1663FBA49F8
:102FA0008B4151D2D7E9224522462B464FF00000F3
:102FB0004FF00001990041EA9271900002460B46E1
:102FC00012EB040843EB050918EB0803BB6149EB5E
:102FD0000903FB61D7E90689C7E9228997F86F30B1
:102FE00000223B647A64D7E910120B46DB43BB63D3
:102FF0001346DB43FB63D7E92223D7E90E4521467D
:103000009142294671EB030320D397F86F300022D9
:103010003B637A63D7E92223D7E90C45214651184F
:10302000396129464B417B61D7E90434C7E9223431
:103030007B6D01337B657B6D1B781846FFF74DFF79
:103040000346002BA2D102E000BF00E000BF7B6D71
:103050001B78002B38D197F89730002B1AD04FF0FF
:1030600000024FF00043C7E91823D7E92223012AC1
:1030700073F1004328D2D7E9222300215042B862DD
:1030800061EB0303FB62D7E90A23386D09F052FEB6
:10309000012341E1D7E92223386D09F05EFE0123C7
:1030A0003AE1D7E922014FF00A024FF00003FDF7A1
:1030B00085FD02460B46C7E92223B7F986309BB24D
:1030C00001339BB2A7F88630D7E92223B3F5801FDE
:1030D000E7D209E0B7F986309BB201339BB2A7F87B
:1030E00086307B6D01337B657B6D1B781846FFF75F
:1030F000F4FE0346002BEDD17B6D1B782E2B4CD1BB
:103100007B6D01337B6540E0D7E92223B2F1993F23
:103110005E498B4136D2D7E9224522462B464FF0F5
:1031200000004FF00001990041EA927190000246C0
:103130000B4612EB040A43EB050B1AEB0A03BB60C8
:103140004BEB0B03FB60D7E902AB52465B46796D54
:1031500009783039C9B2C9B2002039627862D7E93A
:10316000084521465118396029464B417B60D7E913
:103170000034C7E92234B7F986309BB2013B9BB2D9
:10318000A7F886307B6D01337B657B6D1B78184615
:10319000FFF7A3FE0346002BB6D10023C7F880300B
:1031A0007B6D1B78652B04D07B6D1B78452B40F025
:1031B00083807B6D01337B65002387F87F307B6DD7
:1031C0001B782D2B06D1012387F87F307B6D0133CF
:1031D0007B6560E07B6D1B782B2B5CD17B6D0133B5
:1031E0007B6558E0D7F8802013469B0013445B00B2
:1031F0001A467B6D1B78303B1344C7F88030B7F913
:103200008620D7F880301344B3F59A7F40DD97F8D5
:103210007F30002B10D097F89730002B02D09FED15
:10322000167B01E09FED167BB0EE470AF0EE670AD1
:10323000386DFEF7C0FF1BE097F89730002B0AD0DF
:1032400009F09EFD53EC102B08EE102A83F000438A
:1032500008EE903A05E009F093FDB0EE408AF0EEFA
:10326000608AB0EE480AF0EE680A386DFEF7A3FFF8
:10327000012351E0AFF30080000000000000008057
:103280000000000000000000999999199999010027
:103290007B6D01337B657B6D1B781846FFF71DFE48
:1032A0000346002B9ED197F87F30002B04D0D7F82F
:1032B00080305B42C7F88030B7F98630D7F880207D
:1032C0001344C7F880307B6D1B78002B01D000239E
:1032D00022E0D7E92201FDF759F902460B46D7F85B
:1032E000800043EC102B09F05DFD87ED160B97F87D
:1032F0009730002B06D0BB6DBB64FB6D83F00043A1
:10330000FB6403E097ED167B87ED127B97ED120BC4
:10331000386DFEF750FF012318469837BD46BDECC7
:10332000028BBDE8B08F00BF80B582B000AF78607F
:1033300039603868FEF7A9FF0346042B02D0052B3D
:1033400009D011E03B6819683B685A680123786826
:10335000FEF75AFC0BE03B6819683B685A6800238B
:103360007868FEF751FC02E07868FEF71CFC78688C
:103370000837BD4680BD80B483B000AF78600B468F
:10338000FB707B68FA781A707B6818460C37BD466C
:103390005DF8047B704780B483B000AF7860012390
:1033A00018460C37BD465DF8047B704780B483B087
:1033B00000AF7860012318460C37BD465DF8047BEA
:1033C000704780B483B000AF7860012318460C3793
:1033D000BD465DF8047B704780B483B000AF786071
:1033E000012318460C37BD465DF8047B704780B456
:1033F00083B000AF78607B680A221A707B68184639
:103400000C37BD465DF8047B704780B483B000AFD5
:1034100078600B46FB707B68FA781A707B681846F8
:103420000C37BD465DF8047B704780B584B000AFB3
:1034300078607B681B78013BDAB207F10C03114618
:103440001846FFF7E2FF3B7B18461037BD4680BDAC
:1034500080B483B000AF78607B681B78002B0CBF12
:1034600001230023DBB218460C37BD465DF8047B10
:10347000704780B485B000AF38713B797B7300230F
:103480003A7B62F307037A7B62F30F231846143703
:10349000BD465DF8047B704780B483B000AF7860B0
:1034A00039607B683A681A607B6818460C37BD46FD
:1034B0005DF8047B704780B582B000AF78607B68B0
:1034C00018687B68191D7B680C331A46FEF720FDCF
:1034D0007B6800229A607B68DB68002B04D17B68E4
:1034E0001B681846FEF75DFD00BF0837BD4680BD6E
:1034F00080B582B000AF786039603B681A683B687D
:103500009B6819461046FEF71BFD01463B689A680A
:1035100000237868FEF778FB78680837BD4680BDE1
:1035200080B582B000AF78600B46FB707B689B680B
:103530005A1C7B68DB689A420AD27B685A687B68AF
:103540009B68581C796888601344FA781A7004E004
:103550007B681B681846FEF724FD00BF0837BD4690
:1035600080BD80B582B000AF78607B681B6818466C
:10357000FEF7B6FC034683F00103DBB218460837BA
:10358000BD4680BD80B582B000AF786039603B68D1
:103590005A683B689B68134400221A703B6859685C
:1035A0003B689A6800237868FEF72EFB7868083736
:1035B000BD4680BD80B483B000AF0346FB80FB886E
:1035C000B3F5584F05D3FB88B3F55C4F01D2012307
:1035D00000E0002318460C37BD465DF8047B7047B9
:1035E00080B483B000AF0346FB80FB88B3F55C4F2B
:1035F00005D3FB88B3F5604F01D2012300E000231F
:1036000018460C37BD465DF8047B704780B483B024
:1036100000AF78607B6800221A807B6800225A60C5
:103620007B6818460C37BD465DF8047B704780B553
:1036300082B000AF78600B467B807B881846FFF72E
:10364000B9FF0346002B07D07B88C3F309039AB266
:103650007B681A80002318E07B881846FFF7C0FFBC
:103660000346002B0DD07B681B889A027B88C3F32E
:103670000903134303F580331A467B685A6001231C
:1036800003E07A887B685A60012318460837BD46F4
:1036900080BD80B483B000AF78607B685B681846FB
:1036A0000C37BD465DF8047B7047000090B583B0D1
:1036B00000AF78607B680F4AA2FB0323DC0811F09F
:1036C000EBFB03460C4AA2FB03239B0C04FB03F316
:1036D0007B6002E07B68013B7B607B68002B14BF52
:1036E00001230023DBB2002BF4D100BF00BF0C3755
:1036F000BD4690BDCDCCCCCC83DE1B4380B400AFA7
:10370000034B02221A7000BFBD465DF8047B704770
:103710000200002090B587B000AFF860B9607A6011
:10372000FB70FC6807F11403184613F08FFB07F1D8
:1037300014031A461B49204614F044F807F11403F9
:10374000184613F085FBF9684FF00002164BC1E9EB
:103750000623164B1B780133DAB2144B1A70134B45
:103760001A78FB6883F82020FB68002283F8212068
:10377000FB682433184609F05BFBBB68002B03D0C1
:10378000F968B86809F099FBFB687968184613F086
:10379000B8FCFB68FA7883F82120FB6818461C37D0
:1037A000BD4690BD007E01080000F03F40010020B2
:1037B00090B585B000AF78607B680833184613F089
:1037C00069FC7B6803F1200407F10C03184613F031
:1037D0003DFB07F10C031A460649204613F0F2FFA1
:1037E00007F10C03184613F033FB7B6818461437B7
:1037F000BD4690BD007E010880B483B000AF786004
:103800007B6893F8203018460C37BD465DF8047B82
:10381000704780B483B000AF78607B6818460C377F
:10382000BD465DF8047B704780B483B000AF78601C
:103830007B68D3E9062343EC172BB0EE470AF0EE82
:10384000670A0C37BD465DF8047B704780B485B0CD
:1038500000AFF86087ED000BF968D7E90023C1E9F4
:10386000062300BF1437BD465DF8047B704780B562
:1038700084B000AFF860B9601346FB80FB881A463D
:10388000B968F86800F005F8FB6818461037BD46BF
:1038900080BD80B485B000AFF860B9601346FB808E
:1038A000FB68FA889A80FB68BA681A6000BF143710
:1038B000BD465DF8047B704780B584B000AFF8600A
:1038C0000B467A60FB72FB681868FB689988FB7A84
:1038D000002B01D0012300E000231A4610F0AAFCBF
:1038E0007868FFF7E3FE00BF1037BD4680BD80B5A6
:1038F00084B000AFF8607A603B600B46FB72FB7AE5
:103900007A681946F868FFF7D7FFFB7A83F001035E
:10391000DBB23A681946F868FFF7CEFF00BF1037F0
:10392000BD4680BD80B485B000AFF860B9607A60F4
:103930003B60FB68BA681A60FB687A685A60FB688B
:103940003A689A60FB6818461437BD465DF8047BF8
:103950007047000080B483B000AF0346FB71064A95
:10396000FB791370054AFB79137000BF0C37BD4615
:103970005DF8047B704700BF7001002071010020DA
:1039800080B483B000AF0346FB71044AFB79137027
:1039900000BF0C37BD465DF8047B70477001002006
:1039A00080B400AF034B1B78DBB21846BD465DF810
:1039B000047B70477001002080B483B000AF0346E1
:1039C000FB71044AFB79137000BF0C37BD465DF8EC
:1039D000047B70477101002080B400AF034B1B785B
:1039E000DBB21846BD465DF8047B704771010020CC
:1039F00080B582B000AF0346FB71FFF7EDFF0346D1
:103A00001946054809F0AAFAFB791846FFF7D4FFD2
:103A100000BF0837BD4680BD7401002080B500AFEF
:103A2000044809F0B0FA03461846FFF7C5FF00BF87
:103A300080BD00BF7401002080B582B000AF034696
:103A4000FB71FFF7ADFF03461946054809F086FAFA
:103A5000FB791846FFF794FF00BF0837BD4680BDCD
:103A60007C01002080B500AF044809F08CFA0346C1
:103A70001846FFF785FF00BF80BD00BF7C01002016
:103A800080B400AF084B1B78DBB2002B04D1074B8E
:103A90001B78DBB2002B01D0012300E00023184685
:103AA000BD465DF8047B7047700100207101002065
:103AB00080B582B000AF0346FB71FB791846FFF773
:103AC00097FFFB791846FFF7B7FF00BF0837BD46E1
:103AD00080BD80B500AFFFF7A1FFFFF7C3FF00BFB8
:103AE00080BD80B584B000AFF860B9607A60FB68D3
:103AF0000433184613F0CEFAFB68BA681A60FB6804
:103B000004337968184613F0FCFAFB68184610373E
:103B1000BD4680BD80B584B000AFF860B9607A6002
:103B2000F86813F0B7FAFFF73BFF0346002B0FD0FE
:103B3000BB681B68184612F02FFCBB681B687A68CC
:103B4000F9681846FDF76CFE02E0F86813F0A0FB78
:103B5000F86813F055FB03461B780A2B06D0F8686B
:103B600013F04EFB03461B780D2B01D1012300E01F
:103B70000023002BE9D100BFF8681037BD4680BD97
:103B8000B0B582B000AF78603960FFF709FF034637
:103B9000002B15D07B681B68184612F0FDFB7B6874
:103BA0001C68386813F0FCFC0546386813F0E0FA2E
:103BB00003469AB24FF0FF332946204612F03AFCF2
:103BC00000BF0837BD46B0BD80B582B000AF786099
:103BD00039603B6804331946786813F0BFFD786894
:103BE0000837BD4680BD000090B58BB000AF78604F
:103BF00039607B681C1D07F10803184613F026F98D
:103C000007F108031A465949204613F0DBFD07F176
:103C10000803184613F01CF97B6803F11C0407F134
:103C20000C03184613F012F907F10C031A464F491A
:103C3000204613F0C7FD07F10C03184613F008F9EE
:103C40007B6803F1340407F11003184613F0FEF803
:103C500007F110031A464549204613F0B3FD07F15A
:103C60001003184613F0F4F87B6803F14C0407F1D5
:103C70001403184613F0EAF807F114031A463B49F7
:103C8000204613F09FFD07F11403184613F0E0F8E7
:103C90007B6803F1640407F11803184613F0D6F8A3
:103CA00007F118031A463149204613F08BFD07F13E
:103CB0001803184613F0CCF87B68002283F87C20A8
:103CC0007B68002283F87D207B68E433402228490A
:103CD0001846FFF7CCFD7B68EC3380222449184658
:103CE000FFF7C5FD7B6803F1F40407F11C031846D8
:103CF00013F0ACF807F11C031A461E49204613F0D6
:103D000061FD07F11C03184613F0A2F87B6803F568
:103D1000867407F12003184613F098F807F1200382
:103D20001A461549204613F04DFD07F120031846A9
:103D300013F08EF87B6803F5927407F1240318469C
:103D400013F084F807F124031A460C49204613F0B7
:103D500039FD07F12403184613F07AF87B683A68B6
:103D60001A607B6818462C37BD4690BD007E01085E
:103D700000080048047E01080C7E0108147E01083A
:103D800080B582B000AF78607B6803F1E400084B37
:103D9000084A0021FFF7ABFD7B6803F1EC00054BFF
:103DA000054A0121FFF7A3FD00BF0837BD4680BDCE
:103DB00040420F0080841E00C0C62D0080B582B036
:103DC00000AF786039603B684C331946786813F06F
:103DD000C5FC3B684C33184613F0F5F900BF786812
:103DE0000837BD4680BD80B483B000AF78607B6883
:103DF0005B6818460C37BD465DF8047B704780B49D
:103E000083B000AF78607B685B6818460C37BD46AE
:103E10005DF8047B7047000082B0B0B5ADF5287D39
:103E200000AF07F52874A4F52574206007F5287005
:103E3000A0F52670016007F52871A1F527710A60C9
:103E4000C7F8B432B54B1B78DBB2022B0CBF012391
:103E50000023DBB2002B00F0BC83FFF74FFC07F11F
:103E60005C03184612F0F2FF07F15C0307F144000F
:103E7000202241F2883113F01BF907F15C03184648
:103E800012F0E6FF07F16003184612F0DFFF07F1BA
:103E9000600307F12C00202241F2883113F008F969
:103EA00007F16003184612F0D3FF07F11403184618
:103EB00013F0F0F807F14403184613F084F907F5FE
:103EC0002873A3F527730D21186813F09EF907F5E1
:103ED0002873A3F527730A21186813F096F951E3A4
:103EE00007F52873A3F5FA7007F52873A3F5277370
:103EF0001A688B4908F018FC07F52873A3F50373BB
:103F000007F1AC01874A184609F057F8B7F8BC32F8
:103F10001846FCF7F7FA04460D4607F52873A3F593
:103F2000EE730022002145EC104B1846FDF7FCFA19
:103F300007F52873A3F5097307F1C40207F194018B
:103F4000184608F078FC07F52873A3F50F7307F1FE
:103F50007C01754A184609F030F807F164031946E8
:103F60007248FFF70DFE07F16403184613F0C3F81B
:103F700007F17C03184613F0BEF807F1C403184696
:103F800013F0B9F807F19403184613F0B4F807F1E9
:103F9000AC03184613F0AFF807F52873A3F5BE700D
:103FA00007F52873A3F527731A68614908F0BCFB6D
:103FB00007F52873A3F5CA7307F59271594A184695
:103FC00008F0FBFFB7F8BC321846FCF79BFA044632
:103FD0000D4607F52873A3F5B2730022002145ECC6
:103FE000104B1846FDF7A0FA07F52873A3F5D67312
:103FF00007F59E7207F58671184608F01CFC07F558
:104000002873A3F5E27307F1F401474A184608F054
:10401000D4FF07F1DC0207F52873A3F526731146D8
:10402000186801F017FB07F1DC03184613F063F87A
:1040300007F1F403184613F05EF807F59E7318466F
:1040400013F059F807F58673184613F054F807F57E
:104050009273184613F04FF807F52873A3F52673EB
:104060001B681B68184612F097F907F52873A3F52B
:1040700026731B681C6807F52873A3F52773186857
:1040800013F08EFA054607F52873A3F52773186811
:1040900013F06EF803469AB26FF0010329462046EA
:1040A00012F0C8F90023C7F89C3274E007F12C0322
:1040B000184613F088F8FFF721FB07F52873A3F5DE
:1040C00026731B681C6807F52D73184608F08CFFD3
:1040D0000246D7F89C329B0013441A6807F12C0360
:1040E00019462046FDF79CFBFFF708FB07F53073E8
:1040F0001846FFF784FE0246D7F89C32934219D245
:1041000007F53073184608F07BFF0146D7F89C226C
:1041100013465B001344DB000B440CE0000000205E
:104120001C7E0108287E0108387E010884010020D9
:104130003C7E0108002307F12C0107F52872A2F547
:1041400026701A46006800F06FFD03461A4607F510
:104150002873A3F526731B6883F87E2007F5287360
:10416000A3F5A67307F12C0207F14401184608F0E5
:1041700053FF07F5AA7207F144031146184612F0DF
:10418000C6FF07F5AA73184612F0B5FFD7F89C32A0
:104190000133C7F89C3207F52D731846FFF723FE4D
:1041A0000246D7F89C32934234BF01230023DBB28E
:1041B000002B7FF47BAF07F52873A3F526731B68EC
:1041C00093F87E30DBB2022B0CBF01230023DBB25D
:1041D000002B3ED007F5C273184612F037FE07F5E4
:1041E000C27207F5B673DB49184613F0EBFA07F510
:1041F000B6731946D848FFF7C3FC07F5B6731846DF
:1042000012F079FF07F5C273184612F021FE07F588
:10421000D073184612F01AFE07F5D07207F5C47372
:10422000CC49184613F0CEFA07F5C47207F5287387
:10423000A3F526731146186801F00CFA07F5C4734C
:10424000184612F058FF07F5D073184612F000FE1A
:104250003DE007F5DE73184612F0F8FD07F5DE7253
:1042600007F5D273BD49184613F0ACFA07F5D272C0
:1042700007F52873A3F526731146186801F0EAF9CB
:1042800007F5D273184612F036FF07F5DE731846AD
:1042900012F0DEFD07F5EC73184612F0D7FD07F5B6
:1042A000EC7207F5E073AD49184613F08BFA07F589
:1042B000E0731946A848FFF763FC07F5E07318465A
:1042C00012F019FF07F5EC73184612F0C1FD07F55F
:1042D000EE7307F14401A24A184608F099FA07F56F
:1042E000EE7319469C48FFF74BFC07F5EE73184632
:1042F00012F001FF07F5FA7307F14401984A1846D6
:1043000008F086FA07F5FA7207F52873A3F5267305
:104310001146186801F09EF907F5FA73184612F075
:10432000EAFE07F1440300228E49184613F074F99F
:10433000C7F8980207F1440300228B49184613F08E
:104340006BF9C7F89402D7F89832B3F1FF3F40D029
:1043500007F14403D7F898220A21184613F06BF9A5
:10436000C7F8900207F52873A3F526731B6803F1BD
:104370003404D7F89022D7F89832D31A07F503708F
:1043800007F14401D7F8982213F054FA07F50373A4
:104390001946204612F0BBFE07F50373184612F0CB
:1043A000AAFE07F52873A3F526731B6803F13402F0
:1043B00007F509736D49184608F0B6F907F5097352
:1043C00019466548FFF7DCFB07F50973184612F03C
:1043D00092FED7F89432B3F1FF3F70D007F1440357
:1043E000D7F894220A21184613F025F9C7F88C0251
:1043F00007F50F7007F14401D7F88C32D7F89422F3
:1044000013F018FA07F50F7207F114031146184656
:1044100012F07DFE07F50F73184612F06CFE07F1DF
:1044200014034FF0FF322C21184613F05AF9C7F845
:104430008802D7F88832B3F1FF3F40D0D7F88832EE
:104440005A1C07F5157007F114014FF0FF3313F0F4
:10445000F1F907F5157207F114031146184612F029
:1044600056FE07F51573184612F045FE04E007F1F5
:104470001403184612F00CFF07F11403184612F04B
:10448000BFFE03461B780A2B08D007F11403184619
:1044900012F0B6FE03461B780D2B01D1012300E07C
:1044A0000023002BE3D107F52873A3F526731B68BF
:1044B0004C3307F114021146184612F022FEFFF7A2
:1044C0001DF907F52873A3F526731B6893F87E3052
:1044D000DBB2022B09D007F52873A3F526731B68FE
:1044E00093F87E30DBB2042B01D1012300E00023DE
:1044F000002B0DD01E4B02221A7007F1440207F563
:104500002873A3F525731146186812F0DAFD50E000
:1045100007F52873A3F526731B6893F87E30DBB28A
:10452000052B09D107F52873A3F526731B6893F8AB
:104530007E30DBB2062B01D0012300E00023002BEC
:104540001CD0B7F8BC32012B14D9094B01221A70C8
:1045500018E000BF447E0108840100204C7E010861
:10456000547E01085C7E0108687E0108747E0108A3
:1045700000000020364B00221A7003E0344B00226A
:104580001A700CE0B7F8BC325A1EA7F8BC22002BF8
:1045900014BF01230023DBB2002B7FF4A1AC07F191
:1045A000440207F52873A3F525731146186812F025
:1045B00088FD07F11403184612F09DFD07F12C0346
:1045C000184612F098FD07F14403184612F093FDC7
:1045D00028E007F51B7007F52873A3F527731A6801
:1045E0001C4908F0A1F807F51B7319461A48FFF794
:1045F000C7FA07F51B73184612F07DFD07F5217306
:10460000184612F023FC07F5217207F52873A3F56D
:1046100025731249186813F0D5F807F52173184669
:1046200012F016FC07F52873A3F5257307F5287219
:10463000A2F5257212681A6007F52873A3F5257391
:10464000186807F52877BD46BDE8B04002B070474E
:1046500000000020847E010884010020007E010803
:10466000B0B5FCB000AF07F5F874A4F5F2742060A3
:1046700007F5F870A0F5F470016007F5F871A1F581
:10468000F87181E80C00A84B1B78DBB2022B0CBF41
:1046900001230023DBB2002B00F0A082FFF72EF8ED
:1046A00007F12803184612F0D1FB07F1280307F1A0
:1046B0001000202241F2883112F0FAFC07F12803A1
:1046C000184612F0C5FBD7F80C0212F07CFD07F576
:1046D000F873A3F5F4730D21186812F096FD07F531
:1046E000F873A3F5F4730A21186812F08EFD62E2E4
:1046F00007F5F873A3F5BE7007F5F873A3F5F47327
:104700001A688A4908F010F807F5F873A3F5CA7318
:1047100007F17401864A184608F04FFCB7F80032DA
:104720001846FBF7EFFE04460D4607F5F873A3F5B0
:10473000B2730022002145EC104B1846FCF7F4FE42
:1047400007F5F873A3F5D67307F18C0207F15C0146
:10475000184608F070F807F5F873A3F5E27307F14F
:104760004401744A184608F028FC07F12C03194646
:104770007148FFF705FA07F12C03184612F0BBFC4D
:1047800007F14403184612F0B6FC07F18C031846F3
:1047900012F0B1FC07F15C03184612F0ACFC07F113
:1047A0007403184612F0A7FC07F5F873A3F582709E
:1047B00007F5F873A3F5F4731A68604907F0B4FFBE
:1047C00007F5F873A3F58E7307F1EC01584A184604
:1047D00008F0F3FBB7F800321846FBF793FE0446E7
:1047E0000D4607F582730022002145EC104B184658
:1047F000FCF79AFE07F5F873A3F59A7307F5827232
:1048000007F1D401184608F016F807F5F873A3F578
:10481000A67307F1BC01474A184608F0CEFB07F122
:10482000A40207F5F873A3F5F2731146186800F0B7
:1048300011FF07F1A403184612F05DFC07F1BC0359
:10484000184612F058FC07F58273184612F053FC14
:1048500007F1D403184612F04EFC07F1EC0318469A
:1048600012F049FC07F5F873A3F5F2731B681B6897
:10487000184611F091FD07F5F873A3F5F2731B6864
:104880001C6807F5F873A3F5F473186812F088FE36
:10489000054607F5F873A3F5F473186812F068FC81
:1048A00003469AB26FF001032946204611F0C2FD7B
:1048B0000023C7F8EC3171E007F11003184612F03D
:1048C00082FCFEF71BFF07F5F873A3F5F2731B6874
:1048D0001C683B46184608F087FB0246D7F8EC31C7
:1048E0009B0013441A6807F1100319462046FCF791
:1048F00097FFFEF703FF07F501731846FFF77FFAEE
:104900000246D7F8EC3193421AD207F501731846E4
:1049100008F076FB0146D7F8EC2113465B00134400
:10492000DB000B440DE000BF000000201C7E0108EE
:10493000287E0108387E0108840100203C7E0108A1
:10494000002307F1100107F5F872A2F5F2701A467C
:10495000006800F069F903461A4607F5F873A3F5F5
:10496000F2731B6883F87E2007F58E7307F110023F
:10497000D7F80C12184608F04FFB07F58E7319464E
:10498000D7F80C0212F0C3FB07F58E73184612F02D
:10499000B2FBD7F8EC310133C7F8EC313B4618468F
:1049A000FFF721FA0246D7F8EC31934234BF0123D6
:1049B0000023DBB2002B7FF47FAF07F5F873A3F57C
:1049C000F2731B6893F87E30DBB2022B0CBF01231D
:1049D0000023DBB2002B3ED007F5A673184612F079
:1049E00035FA07F5A67207F59A738949184612F049
:1049F000E9FE07F59A7319468648FFF7C1F807F5EF
:104A00009A73184612F077FB07F5A673184612F052
:104A10001FFA07F5B473184612F018FA07F5B472C6
:104A200007F5A8737A49184612F0CCFE07F5A8726C
:104A300007F5F873A3F5F2731146186800F00AFE43
:104A400007F5A873184612F056FB07F5B47318461D
:104A500012F0FEF93DE007F5C273184612F0F6F9C0
:104A600007F5C27207F5B6736B49184612F0AAFE35
:104A700007F5B67207F5F873A3F5F27311461868D7
:104A800000F0E8FD07F5B673184612F034FB07F5A1
:104A9000C273184612F0DCF907F5D073184612F00D
:104AA000D5F907F5D07207F5C4735B49184612F0C3
:104AB00089FE07F5C47319465648FFF761F807F5F4
:104AC000C473184612F017FB07F5D073184612F09E
:104AD000BFF907F5D273514AD7F80C12184607F000
:104AE00097FE07F5D27319464A48FFF749F807F5CC
:104AF000D273184612F0FFFA07F5DE73474AD7F86B
:104B00000C12184607F084FE07F5DE7207F5F873FD
:104B1000A3F5F2731146186800F09CFD07F5DE73EB
:104B2000184612F0E8FAFEF7E9FD07F5F873A3F569
:104B3000F2731B6893F87E30DBB2022B09D007F5C5
:104B4000F873A3F5F2731B6893F87E30DBB2042B85
:104B500001D1012300E00023002B03D0304B0222BF
:104B60001A7028E007F5F873A3F5F2731B6893F841
:104B70007E30DBB2052B09D107F5F873A3F5F2738C
:104B80001B6893F87E30DBB2062B01D0012300E0D6
:104B90000023002B0BD0B7F80032012B03D9204B98
:104BA00001221A7007E01E4B00221A7003E01C4B12
:104BB00000221A700CE0B7F800325A1EA7F8002243
:104BC000002B14BF01230023DBB2002B7FF490AD38
:104BD00007F11003184612F08EFA14E007F5EA7098
:104BE00007F5F873A3F5F4731A680E4907F09CFDF6
:104BF00007F5EA7319460748FEF7C2FF07F5EA739F
:104C0000184612F078FA00BF07F5F877BD46B0BD38
:104C1000447E0108840100204C7E0108547E010876
:104C200000000020847E010890B585B000AFF860D8
:104C3000B9607A607B68002B01D1022363E0BC6815
:104C4000786812F0ADFC034600221946204612F0A7
:104C5000E3FC0346B3F1FF3F06D12D49786808F025
:104C6000EEF90346002B01D0012300E00023002BC6
:104C700048D0BC68786812F093FC034600221946BD
:104C8000204612F0C9FC0346B3F1FF3F06D120498C
:104C9000786808F0D4F90346002B01D0012300E026
:104CA0000023002B01D002232DE000221949B8680F
:104CB00012F0B2FC0346B3F1FF3F0CBF0123002307
:104CC000DBB2002B1ED000221249B86812F0A4FCFF
:104CD0000346B3F1FF3F0CBF01230023DBB2002BDF
:104CE00001D006230FE0B86812F042FA0346002B09
:104CF0000CBF01230023DBB2002B01D0052302E00F
:104D0000072300E0072318461437BD4690BD00BFB7
:104D1000007E0108947E0108B0B5C2B004AF78608F
:104D2000396007F108033A686749184607F0FCFC48
:104D300007F15003184612F089F807F1500207F105
:104D400038036249184612F03DFD4FF4FA63FB65E3
:104D500007F15C037B650123BB6507F1080207F1DE
:104D600068031146184612F0F9FC07F168033B6628
:104D700001237B6607F1200407F1380202AD07F139
:104D8000600393E8030085E8030001230193BB6DF2
:104D900000937B6D79682046FFF73EF807F120030A
:104DA000184612F0A8F907F16804183407F16803EF
:104DB0009C4204D0183C204612F09DF9F6E707F11A
:104DC0003803184612F097F907F15003184612F00D
:104DD0003FF83F4B1B78DBB2022B14BF01230023AB
:104DE000DBB2002B67D03A4B02221A7007F1B003F6
:104DF00007F108023749184607F096FC07F19803B7
:104E000007F1B001344A184608F0D7F84FF4FA63B6
:104E1000C7F8D03007F1D003C7F8C8300123C7F86E
:104E2000CC3007F1F403184612F010F807F1F40241
:104E300007F1DC032949184612F0C4FC07F1DC0332
:104E4000C7F8D4300123C7F8D83007F1800407F140
:104E5000980202AD07F1D40393E8030085E803004C
:104E600001230193D7F8CC300093D7F8C830796884
:104E70002046FEF7D1FF07F18003184612F03BF9F8
:104E800007F1DC04183407F1DC039C4204D0183C21
:104E9000204612F030F9F6E707F1F403184611F056
:104EA000D7FF07F19803184612F025F907F1B00370
:104EB000184612F020F907F10803184612F01BF902
:104EC000F837BD46B0BD00BF9C7E0108A47E010836
:104ED00000000020B47E0108C87E0108CC7E0108D5
:104EE000F0B5ADF5217D04AF07F51C73A3F51B7379
:104EF000186007F51C73A3F51C7319600120FEF7F9
:104F000077FD07F51C73A3F51C7307F10C021968F4
:104F1000104612F023FC07F10C0207F51C73A3F5F1
:104F20001B7311461868FFF7F7FE07F10C031846CC
:104F300012F0E1F807F15403184611F087FF07F16A
:104F4000540207F13C03D449184612F03BFC07F524
:104F50001C73A3F50473D14A92E8030083E80300AD
:104F600007F51C73A3F5067307F160021A6007F5D5
:104F70001C73A3F5067302225A6007F1A0031846BA
:104F800011F064FF07F1A00207F17003C44918464D
:104F900012F018FC07F1A403184611F057FF07F1AF
:104FA000A40207F170031833BE49184612F00AFC38
:104FB00007F51C73A3F5027307F170021A6007F579
:104FC0001C73A3F5027302225A6007F51C73A3F544
:104FD000137507F51C73A3F5067307F13C0607F577
:104FE0001C72A2F51B7407F51C72A2F5027102AACD
:104FF00003C982E80300012201925A6800921B68EB
:10500000324621682846FEF707FF07F124031846B9
:1050100012F071F807F17004303407F170039C420C
:1050200004D0183C204612F066F8F6E707F1A40316
:10503000184611F00DFF07F1A003184611F008FF04
:1050400007F13C03184612F056F807F154031846CE
:1050500011F0FEFE07F1D803184611F0F7FE07F134
:10506000D80207F1C0039049184612F0ABFB07F5D0
:105070001C73A3F5C6734FF47A721A6007F51C739C
:10508000A3F5CA7307F1E4021A6007F51C73A3F5D0
:10509000CA7301225A6007F58473184611F0D6FED0
:1050A00007F5847207F1F0038049184612F08AFB75
:1050B00007F51C73A3F5C47307F1F0021A6007F536
:1050C0001C73A3F5C47301225A6007F51C73A3F582
:1050D000E47507F51C73A3F5CA7307F1C00607F55D
:1050E0001C72A2F51B7407F51C72A2F5C47102AA0A
:1050F00003C982E80300012201925A6800921B68EA
:10510000324621682846FEF787FE07F1A8031846B5
:1051100011F0F1FF07F1F004183407F1F0039C429D
:1051200004D0183C204611F0E6FFF6E707F584733B
:10513000184611F08DFE07F1C003184611F0DBFF91
:1051400007F1D803184611F083FE594B1B78DBB2E8
:10515000022B0CBF01230023DBB2002B2CD007F560
:105160001C73A3F51B731B68012283F87C20514834
:10517000FEF79CFA07F59273184611F067FE07F5E3
:10518000927207F586734C49184612F01BFB07F51F
:10519000867207F51C73A3F51B731146186800F09F
:1051A00059FA07F58673184611F0A5FF07F59273B3
:1051B000184611F04DFE96E13D4B02221A7007F59C
:1051C000AC73184611F042FE07F5AC7207F5A073F8
:1051D0003449184612F0F6FA07F51C73A3F58673E6
:1051E00041F288321A6007F51C73A3F58A7307F53C
:1051F000B2721A6007F51C73A3F58A7301225A6014
:1052000007F5C473184611F021FE07F5C47207F5BF
:10521000B8732449184612F0D5FA07F51C73A3F5A4
:10522000847307F5B8721A6007F51C73A3F58473CD
:1052300001225A6007F51C73A3F5A47507F51C73CA
:10524000A3F58A7307F5A07607F51C72A2F51B7407
:1052500007F51C72A2F5847102AA03C982E8030053
:10526000012201925A6800921B6832462168284642
:10527000FEF7D2FD07F59473184611F03CFF07F5D1
:10528000B874183407F5B8739C4217D0183C204600
:1052900011F031FFF6E700BFD07E01081C7F010846
:1052A000CC7E0108007E0108E07E0108F07E010846
:1052B0000000002040420F00007F010807F5C47382
:1052C000184611F0C5FD07F5A073184611F013FF3D
:1052D00007F5AC73184611F0BBFD07F5DE731846F1
:1052E00011F0B4FD07F5DE7207F5D2738349184655
:1052F00012F068FA4FF47A73C7F8C83107F5E4730F
:10530000C7F8C0310123C7F8C43107F5F673184652
:1053100011F09CFD07F5F67207F5EA737849184617
:1053200012F050FA07F5EA73C7F8CC310123C7F839
:10533000D03107F5C67507F5D27207F51C73A3F5D2
:105340001B7402AE07F5E67393E8030086E80300DA
:1053500001230193D7F8C4310093D7F8C0312168F5
:105360002846FEF759FD07F5C673184611F0C3FE2F
:1053700007F5EA74183407F5EA739C4204D0183C28
:10538000204611F0B8FEF6E707F5F673184611F05F
:105390005FFD07F5D273184611F0ADFE07F5DE7319
:1053A000184611F055FD574B1B78DBB2022B0CBF92
:1053B00001230023DBB2002B2CD007F51C73A3F5CF
:1053C0001B731B68012283F87C204F48FEF76EF99F
:1053D00007F50273184611F039FD07F5027207F55B
:1053E000F8734A49184612F0EDF907F5F87207F517
:1053F0001C73A3F51B731146186800F02BF907F511
:10540000F873184611F077FE07F50273184611F08D
:105410001FFD68E03B4B02221A7007F50F73184618
:1054200011F014FD07F50F7207F509733849184696
:1054300012F0C8F941F28833C7F8483207F5127301
:10544000C7F840320123C7F8443207F51B731846EA
:1054500011F0FCFC07F51B7207F515732D49184672
:1054600012F0B0F907F51573C7F84C320123C7F8ED
:10547000503207F5037507F5097207F51C73A3F59C
:105480001B7402AE07F5137393E8030086E803006C
:1054900002230193D7F844320093D7F840322168B1
:1054A0002846FEF7B9FC07F50373184611F023FEF2
:1054B00007F51574183407F515739C4204D0183C91
:1054C000204611F018FEF6E707F51B73184611F099
:1054D000BFFC07F50973184611F00DFE07F50F73B1
:1054E000184611F0B5FCFEF799FA064B02221A7025
:1054F00000BF07F51D77BD46F0BD00BFE07E010887
:10550000F07E01080000002040420F00007F0108EB
:105510000C7F0108CC7E0108B0B5A2B004AFF860E2
:10552000B9607A60BB6893F87C30DBB2012B0BD199
:10553000454B1B78DBB2022B06D1FEF74DFA034632
:10554000002B01D0012300E00023002B73D03F4B40
:105550001B7887F877300020FEF7AAFABB6893F82B
:105560007E3087F87630394B02221A7007F14403F7
:10557000184611F06BFC07F1440207F12C03344983
:10558000184612F01FF97B683B6507F15003BB64B6
:105590000123FB6407F17403184611F057FC07F16F
:1055A000740207F15C032A49184612F00BF907F15F
:1055B0005C037B650123BB6507F1140407F12C0232
:1055C00002AD07F1540393E8030085E803000123CB
:1055D0000193FB6C0093BB6CB9682046FEF71CFC82
:1055E00007F11403184611F086FD07F15C04183426
:1055F00007F15C039C4204D0183C204611F07BFD6F
:10560000F6E707F17403184611F022FC07F12C03AA
:10561000184611F070FD07F14403184611F018FC0C
:105620000A4A97F877301370BB6897F8762083F8AA
:105630007E20FEF74EFAFB68B9681846FEF7BEFBFF
:10564000F8687837BD46B0BD030000200000002098
:10565000007E0108B0B5C4B004AF786007F5807370
:10566000A3F5807319607B6893F87C30DBB2012B63
:1056700011D17B6893F87D30DBB2002B0BD1894BC5
:105680001B78DBB2022B06D1FEF7A6F90346002BEE
:1056900001D0012300E00023002B00F0FE80824BAC
:1056A0001B7887F8FF307B68012283F87D2000207B
:1056B000FEF7FEF97C4B02221A707B6893F87E306D
:1056C00087F8FE3007F58073A3F58073186811F032
:1056D0004FFD03461846FAF715FF04460D4607F13D
:1056E00038030022002145EC104B1846FBF71CFF45
:1056F00007F1200307F138026C49184607F016F944
:105700004FF4FA73BB6507F158033B6501237B65D2
:1057100007F17C03184611F099FB07F17C0207F1B1
:1057200064036349184612F04DF807F16403FB6502
:1057300001233B6607F1080407F1200202AD07F1DF
:105740005C0393E8030085E80300012301937B6D6C
:1057500000933B6D79682046FEF75EFB07F1080376
:10576000184611F0C8FC07F16404183407F164030B
:105770009C4204D0183C204611F0BDFCF6E707F12E
:105780007C03184611F064FB07F12003184611F062
:10579000B2FC07F13803184611F0ADFC07F5807331
:1057A000A3F5807307F198021968104611F0D6FF2F
:1057B000404A07F1B80392E8030083E8030007F1C9
:1057C000B803C7F8B0300223C7F8B43007F1F803C4
:1057D000184611F03BFB07F1F80207F1C803364900
:1057E000184611F0EFFF07F1FC03184611F02EFBED
:1057F00007F1FC0207F1C80318333049184611F0CD
:10580000E1FF07F1C803C7F8C0300223C7F8C4306E
:1058100007F1800407F1980202AD07F1C00393E895
:10582000030085E8030001230193D7F8B430009307
:10583000D7F8B03079682046FEF7EEFA07F180031A
:10584000184611F058FC07F1C804303407F1C803BA
:105850009C4204D0183C204611F04DFCF6E707F1BD
:10586000FC03184611F0F4FA07F1F803184611F09A
:10587000EFFA07F19803184611F03DFC0A4A97F831
:10588000FF3013707B6897F8FE2083F87E207B68DA
:10589000002283F87D20FEF71CF900BF07F5807712
:1058A000BD46B0BD0300002000000020247F010899
:1058B0003C7F01084C7F0108CC7E0108407F010835
:1058C000F0B5D3B004AF07F59C73A3F59A731860D5
:1058D00007F13C03184611F0B9FA07F13C0207F151
:1058E00024039E49184611F06DFF4FF47A73BB6490
:1058F00007F148033B6401237B6407F16C031846FE
:1059000011F0A4FA07F16C0207F154039449184608
:1059100011F058FF07F15403FB6401233B6507F5C1
:105920009C73A3F5967507F1240207F59C73A3F504
:105930009A7402AE07F14C0393E8030086E8030073
:10594000012301937B6C00933B6C21682846FEF792
:1059500063FA07F10C03184611F0CDFB07F154046C
:10596000183407F154039C4204D0183C204611F02F
:10597000C2FBF6E707F16C03184611F069FA07F16C
:105980002403184611F0B7FB07F13C03184611F049
:105990005FFA744B1B78DBB2022B14BF0123002388
:1059A000DBB2002B09D06F4B02221A7007F59C73F3
:1059B000A3F59A731868FEF7E3F907F1A0031846F8
:1059C00011F044FA07F1A00207F188036349184671
:1059D00011F0F8FE4FF47A73C7F8AC3007F1AC035E
:1059E000C7F8A4300123C7F8A83007F1D003184640
:1059F00011F02CFA07F1D00207F1B8035849184604
:105A000011F0E0FE07F1B803C7F8B0300123C7F882
:105A1000B43007F1700507F1880207F59C73A3F510
:105A20009A7402AE07F1B00393E8030086E803001E
:105A300014230193D7F8A8300093D7F8A430216835
:105A40002846FEF7E9F907F17003184611F053FBF9
:105A500007F1B804183407F1B8039C4204D0183C8D
:105A6000204611F048FBF6E707F1D003184611F085
:105A7000EFF907F18803184611F03DFB07F1A00389
:105A8000184611F0E5F907F58273184611F0DEF9B2
:105A900007F5827207F1EC033349184611F092FEC4
:105AA0004FF47A73C7F8103107F58873C7F80831D7
:105AB0000123C7F80C3107F59A73184611F0C6F99F
:105AC00007F59A7207F58E732549184611F07AFE8C
:105AD00007F58E73C7F814310123C7F8183107F1A1
