:020000040800F2
:10000000000001208D290108252501082D25010862
:10001000352501083D25010845250108000000009F
:100020000000000000000000000000004D25010855
:100030005B250108000000006925010877250108FB
:10004000DD290108DD290108DD29010885250108D0
:10005000DD29010899250108DD290108DD290108AC
:10006000DD290108DD290108DD290108DD29010854
:10007000DD290108DD290108DD290108DD29010844
:10008000DD290108DD290108DD290108DD29010834
:10009000DD290108DD290108DD290108A72501085E
:1000A000DD290108DD290108DD290108DD29010814
:1000B000DD2901080000000000000000DD29010822
:1000C000DD290108DD290108DD290108DD290108F4
:1000D000DD290108DD290108DD290108DD290108E4
:1000E000DD290108B925010800000000000000001A
:1000F0000000000000000000000000000000000000
:1001000000000000DD29010800000000DD290108D1
:100110000000000000000000DD290108DD290108C1
:10012000DD290108DD290108DD290108DD29010893
:10013000DD290108000000000000000000000000B0
:10014000DD290108DD290108DD290108DD29010873
:10015000DD290108DD290108DD290108DD29010863
:10016000DD290108DD290108DD2901080000000062
:10017000DD290108DD290108DD2901080000000052
:0C018000DD290108DD290108DD29010846
:1001900010B5054C237833B9044B13B10448AFF3C1
:1001A00000800123237010BD8000002000000000AB
:1001B000147C010808B5034B1BB103490348AFF396
:1001C000008008BD0000000084000020147C0108AD
:1001D00001F0FF01102A2BDB10F0070F08D010F8F8
:1001E000013B013A8B422DD010F0070F42B3F6D1FC
:1001F000F0B441EA012141EA014122F007047FF015
:1002000000070023F0E80256083C85EA010586EA6B
:10021000010685FA47F5A3FA87F586FA47F6A5FAA7
:1002200087F68EB9EED1F0BC01F0FF0102F00702B3
:1002300032B110F8013B013A83EA010313B1F8D15E
:100240000020704701387047002D06BF354603383F
:10025000073815F0010F07D1013015F4807F02BF78
:10026000013015F4C03F0130F0BC0138704700BFC9
:10027000034613F8012B002AFBD1181A01387047E6
:1002800081F0004102E000BF83F0004330B54FEA47
:1002900041044FEA430594EA050F08BF90EA020FB4
:1002A0001FBF54EA000C55EA020C7FEA645C7FEA47
:1002B000655C00F0E2804FEA5454D4EB5555B8BF6A
:1002C0006D420CDD2C4480EA020281EA030382EADB
:1002D000000083EA010180EA020281EA0303362D6D
:1002E00088BF30BD11F0004F4FEA01314FF4801C40
:1002F0004CEA113102D0404261EB410113F0004F52
:100300004FEA03334CEA133302D0524263EB430308
:1003100094EA050F00F0A780A4F10104D5F1200EA6
:100320000DDB02FA0EFC22FA05F2801841F1000101
:1003300003FA0EF2801843FA05F359410EE0A5F1D5
:1003400020050EF1200E012A03FA0EFC28BF4CF006
:10035000020C43FA05F3C01851EBE37101F00045BC
:1003600007D54FF0000EDCF1000C7EEB00006EEBC9
:100370000101B1F5801F1BD3B1F5001F0CD3490853
:100380005FEA30004FEA3C0C04F101044FEA4452AA
:1003900012F5800F80F09A80BCF1004F08BF5FEA31
:1003A000500C50F1000041EB045141EA050130BD11
:1003B0005FEA4C0C404141EB0101013C28BFB1F523
:1003C000801FE9D291F0000F04BF01460020B1FA6E
:1003D00081F308BF2033A3F10B03B3F120020CDA41
:1003E0000C3208DD02F1140CC2F10C0201FA0CF01F
:1003F00021FA02F10CE002F11402D8BFC2F1200C84
:1004000001FA02F120FA0CFCDCBF41EA0C01904039
:10041000E41AA2BF01EB0451294330BD6FEA040482
:100420001F3C1CDA0C340EDC04F11404C4F120026D
:1004300020FA04F001FA02F340EA030021FA04F37F
:1004400045EA030130BDC4F10C04C4F1200220FAD6
:1004500002F001FA04F340EA0300294630BD21FA14
:1004600004F0294630BD94F0000F83F4801306BFDA
:1004700081F480110134013D4EE77FEA645C18BFCE
:100480007FEA655C29D094EA050F08BF90EA020F65
:1004900005D054EA000C04BF1946104630BD91EA5D
:1004A000030F1EBF0021002030BD5FEA545C05D160
:1004B0004000494128BF41F0004130BD14F580049F
:1004C0003CBF01F5801130BD01F0004545F0FE4113
:1004D00041F470014FF0000030BD7FEA645C1ABF48
:1004E000194610467FEA655C1CBF0B46024650EA7F
:1004F000013406BF52EA033591EA030F41F40021AB
:1005000030BD00BF90F0000F04BF0021704730B530
:100510004FF4806404F132044FF000054FF0000105
:1005200050E700BF90F0000F04BF0021704730B5C6
:100530004FF4806404F1320410F0004548BF40429B
:100540004FF000013EE700BF42004FEAE2014FEAF0
:1005500031014FEA02701FBF12F07F4393F07F4FCB
:1005600081F06051704732F07F4208BF704793F0CE
:100570007F4F04BF41F40021704730B54FF46074E1
:1005800001F0004521F000411CE700BF50EA0102E4
:1005900008BF704730B54FF000050AE050EA01028D
:1005A00008BF704730B511F0004502D5404261EBFD
:1005B00041014FF4806404F132045FEA915C3FF43E
:1005C000D8AE4FF003025FEADC0C18BF03325FEADB
:1005D000DC0C18BF033202EBDC02C2F1200300FA8C
:1005E00003FC20FA02F001FA03FE40EA0E0021FAB1
:1005F00002F11444BDE600BF70B54FF0FF0C4CF49F
:10060000E06C1CEA11541DBF1CEA135594EA0C0F50
:1006100095EA0C0F00F0DEF82C4481EA030621EA8B
:100620004C5123EA4C5350EA013518BF52EA0335C6
:1006300041F4801143F4801338D0A0FB02CE4FF078
:100640000005E1FB02E506F00042E0FB03E54FF0A8
:100650000006E1FB03569CF0000F18BF4EF0010EA0
:10066000A4F1FF04B6F5007F64F5407404D25FEA9C
:100670004E0E6D4146EB060642EAC62141EA55514F
:100680004FEAC52040EA5E504FEACE2EB4F1FD0C91
:1006900088BFBCF5E06F1ED8BEF1004F08BF5FEA0F
:1006A000500E50F1000041EB045170BD06F00046C1
:1006B00046EA010140EA020081EA0301B4EB5C046E
:1006C000C2BFD4EB0C0541EA045170BD41F4801166
:1006D0004FF0000E013C00F3AB8014F1360FDEBF8B
:1006E000002001F0004170BDC4F10004203C35DA67
:1006F0000C341BDC04F11404C4F1200500FA05F3EA
:1007000020FA04F001FA05F240EA020001F000428A
:1007100021F0004110EBD37021FA04F642EB060100
:100720005EEA430E08BF20EAD37070BDC4F10C042A
:10073000C4F1200500FA04F320FA05F001FA04F2EE
:1007400040EA020001F0004110EBD37041F10001DA
:100750005EEA430E08BF20EAD37070BDC4F12005E5
:1007600000FA05F24EEA020E20FA04F301FA05F24D
:1007700043EA020321FA04F001F0004121FA04F2F5
:1007800020EA020000EBD3705EEA430E08BF20EAC5
:10079000D37070BD94F0000F0FD101F000464000FF
:1007A00041EB010111F4801F08BF013CF7D041EA81
:1007B000060195F0000F18BF704703F00046520085
:1007C00043EB030313F4801F08BF013DF7D043EA56
:1007D0000603704794EA0C0F0CEA135518BF95EA0C
:1007E0000C0F0CD050EA410618BF52EA4306D1D193
:1007F00081EA030101F000414FF0000070BD50EAB2
:10080000410606BF1046194652EA430619D094EA3B
:100810000C0F02D150EA013613D195EA0C0F05D125
:1008200052EA03361CBF104619460AD181EA030179
:1008300001F0004141F0FE4141F470014FF0000031
:1008400070BD41F0FE4141F4780170BD70B54FF0CC
:10085000FF0C4CF4E06C1CEA11541DBF1CEA13554C
:1008600094EA0C0F95EA0C0F00F0A7F8A4EB05042E
:1008700081EA030E52EA03354FEA013100F0888025
:100880004FEA03334FF0805545EA131343EA1263EE
:100890004FEA022245EA111545EA10654FEA0026A3
:1008A0000EF000419D4208BF964244F1FD0404F55C
:1008B000407402D25B084FEA3202B61A65EB0305B8
:1008C0005B084FEA32024FF480104FF4002CB6EB75
:1008D000020E75EB030E22BFB61A754640EA0C00F5
:1008E0005B084FEA3202B6EB020E75EB030E22BF35
:1008F000B61A754640EA5C005B084FEA3202B6EB76
:10090000020E75EB030E22BFB61A754640EA9C0034
:100910005B084FEA3202B6EB020E75EB030E22BF04
:10092000B61A754640EADC0055EA060E18D04FEAC2
:10093000051545EA16754FEA06164FEAC30343EA62
:1009400052734FEAC2025FEA1C1CC0D111F4801F2F
:100950000BD141EA00014FF000004FF0004CB6E728
:1009600011F4801F04BF01430020B4F1FD0C88BFC7
:10097000BCF5E06F3FF6AFAEB5EB030C04BFB6EBD2
:10098000020C5FEA500C50F1000041EB045170BDC5
:100990000EF0004E4EEA113114EB5C04C2BFD4EBF2
:1009A0000C0541EA045170BD41F480114FF0000E76
:1009B000013C90E645EA060E8DE60CEA135594EAF2
:1009C0000C0F08BF95EA0C0F3FF43BAF94EA0C0FF5
:1009D0000AD150EA01347FF434AF95EA0C0F7FF46A
:1009E00025AF104619462CE795EA0C0F06D152EABE
:1009F00003353FF4FDAE1046194622E750EA4106A2
:100A000018BF52EA43067FF4C5AE50EA41047FF4B2
:100A10000DAF52EA43057FF4EBAE12E74FF0FF3C17
:100A200006E000BF4FF0010C02E000BF4FF0010CE8
:100A30004DF804CD4FEA410C7FEA6C5C4FEA430C61
:100A400018BF7FEA6C5C1BD001B050EA410C0CBFB0
:100A500052EA430C91EA030F02BF90EA020F002012
:100A6000704710F1000F91EA030F58BF994208BF79
:100A700090422CBFD8176FEAE37040F00100704736
:100A80004FEA410C7FEA6C5C02D150EA013C07D18D
:100A90004FEA430C7FEA6C5CD6D152EA033CD3D0D8
:100AA0005DF8040B704700BF8446104662468C46D2
:100AB0001946634600E000BF01B5FFF7B7FF002805
:100AC00048BF10F1000F01BD4DF808EDFFF7F4FF2E
:100AD0000CBF012000205DF808FB00BF4DF808EDB9
:100AE000FFF7EAFF34BF012000205DF808FB00BFDC
:100AF0004DF808EDFFF7E0FF94BF012000205DF8FE
:100B000008FB00BF4DF808EDFFF7CEFF94BF0120B2
:100B100000205DF808FB00BF4DF808EDFFF7C4FFAB
:100B200034BF012000205DF808FB00BF4FEA4102FE
:100B300012F5001215D211D56FF47873B3EB62522F
:100B400012D94FEAC12343F0004343EA505311F056
:100B5000004F23FA02F018BF404270474FF00000E8
:100B6000704750EA013005D111F0004008BF6FF026
:100B7000004070474FF00000704700BF4A0011D29C
:100B800012F5001211D20DD56FF47873B3EB6252E7
:100B90000ED44FEAC12343F0004343EA505323FAF3
:100BA00002F070474FF00000704750EA013002D168
:100BB0004FF0FF3070474FF00000704753B94AB90B
:100BC000002908BF00281CBF4FF0FF314FF0FF3055
:100BD00000F0A6B9ADF1080C6DE904CE00F024F8E0
:100BE000DDF804E0DDE9022304B07047D0B50C4B1A
:100BF000002206460F46FFF7FFFCFFF7BFFF044643
:100C0000FFF780FC074B0022FFF7F6FC02460B467D
:100C100030463946FFF738FBFFF7B0FF2146D0BD1D
:100C20000000F03D0000F0412DE9F047089D8E46A0
:100C300004468846002B4AD18A42174662D9B2FA46
:100C400082F64EB1C6F1200301FA06F820FA03F34A
:100C5000B74043EA0808B4404FEA174E1FFA87FC32
:100C6000B8FBFEF1230C0EFB118843EA084301FB9D
:100C70000CF29A4209D9FB1801F1FF3080F0EA80AA
:100C80009A4240F2E78002393B449A1AA3B2B2FB7F
:100C9000FEF00EFB102243EA024300FB0CFC9C45D5
:100CA00009D9FB1800F1FF3280F0D6809C4540F254
:100CB000D3803B44023840EA0140A3EB0C030021FF
:100CC0001DB1F3400022C5E90032BDE8F0878B4238
:100CD00005D90DB1C5E9000100210846F5E7B3FAD1
:100CE00083F1002946D1734502D3824200F2058187
:100CF000841A6EEB030201209046002DE5D0C5E971
:100D00000048E2E7002A00F09080B2FA82F6002E56
:100D100040F0A4808A1A030C4FEA174E80B2BCB28E
:100D20000121B2FBFEFC0EFB1C2243EA024304FB42
:100D30000CF29A4207D9FB180CF1FF3802D29A4202
:100D400000F2E080C4469B1AB3FBFEF20EFB1233A6
:100D500040EA034302FB04F49C4207D9FB1802F16A
:100D6000FF3002D29C4200F2CA8002461B1B42EABC
:100D70000C40A5E7C1F120068B4022FA06F71F437D
:100D80000EFA01F420FA06F32EFA06FE4FEA17498E
:100D9000234300FA01F81FFA87FCBEFBF9F01C0C94
:100DA00009FB10EE44EA0E4400FB0CFEA64502FAD5
:100DB00001F209D93C1900F1FF3A80F09C80A64568
:100DC00040F2998002383C44A4EB0E041FFA83FEE3
:100DD000B4FBF9F309FB13444EEA044403FB0CFC97
:100DE000A44508D93C1903F1FF3E80F08280A44558
:100DF0007FD9023B3C4443EA0040A4EB0C04A0FB37
:100E000002EC64457346E14662D35FD05DB1B8EB56
:100E1000030264EB090404FA06F622FA01F31E4306
:100E2000CC40C5E9006400214FE7B1FBF2FC010CA6
:100E300041EA0E4180B240EA01423B4638463C4618
:100E4000B846BE462026B1FBF7F1A2EB080241EA04
:100E50000C4166E7014618E710462CE7C6F1200270
:100E60002EFA02F3B740B14020FA02F24FEA174ED1
:100E70000A43B3FBFEF8BCB20EFB1833110C41EA77
:100E8000034108FB04F9B04089454FEA104380B2A2
:100E90003ED9791808F1FF3C01D289451FD8A1EB52
:100EA0000901B1FBFEF909FB04F80EFB191192B21E
:100EB00042EA0142424529D2BA1809F1FF31C4D2AF
:100EC0004245C2D2A9F102013A44BEE7F0459DD2A3
:100ED000BEEB02036CEB070C0138E14696E7A7EB8B
:100EE00009094944A8F1020CB1FBFEF909FB04F819
:100EF000DBE773467FE7504666E70846FDE63B447E
:100F0000023A33E7ACF1020C3B441CE749469CE74C
:100F1000A1EB0901C446B1FBFEF909FB04F8C4E7E3
:100F2000704700BF80B586B000AF3B4600221A6014
:100F30005A609A60DA601A615A61294B294A1A602C
:100F4000274B00225A60264B00229A60244B002235
:100F5000DA60234B00221A61214B04225A61204B94
:100F600000221A761E4B00225A761D4B0122DA61AE
:100F70001B4B002283F82020194B00229A62184B49
:100F80000022DA62164B002283F83020144B002234
:100F90005A63134B002283F83820114811F068FF80
:100FA0000346002B01D00BF0FFF90F4B3B600623EB
:100FB0007B600023BB607F23FB6004233B61002335
:100FC0007B613B461946064812F094F80346002B15
:100FD00001D00BF0E9F900BF1837BD4680BD00BF56
:100FE0009C000020000004500200300480B5A2B034
:100FF00000AF786007F1740300221A605A609A60AB
:10100000DA601A6107F1140360220021184616F015
:1010100021FD7B681B68364A934265D14FF48043BB
:101020007B614FF04053BB6607F11403184614F080
:1010300099F80346002B01D00BF0B6F92D4BDB6C71
:101040002C4A43F40053D3642A4BDB6C03F4005363
:101050003B613B69274BDB6C264A43F00403D364B6
:10106000244BDB6C03F00403FB60FB68214BDB6C5F
:10107000204A43F00103D3641E4BDB6C03F00103F1
:10108000BB60BB680B237B670B23BB670023FB673D
:1010900007F174031946184812F096FF04237B6782
:1010A0000323BB670023FB6707F17403194612484B
:1010B00012F08AFF20237B670B23BB670023FB67AB
:1010C00007F1740319464FF0904012F07DFF402362
:1010D0007B670323BB670023FB6707F17403194693
:1010E0004FF0904012F070FF00BF8837BD4680BDC2
:1010F00000000450001002400008004880B58CB089
:1011000000AF07F11C0300221A605A609A60DA608F
:101110001A61704BDB6C6F4A43F01003D3646D4B64
:10112000DB6C03F01003BB61BB696A4BDB6C694A83
:1011300043F00203D364674BDB6C03F002037B6173
:101140007B69644BDB6C634A43F08003D364614B7F
:10115000DB6C03F080033B613B695E4BDB6C5D4AFB
:1011600043F00803D3645B4BDB6C03F00803FB60C4
:10117000FB68584BDB6C574A43F00103D364554B73
:10118000DB6C03F00103BB60BB68524BDB6C514A64
:1011900043F00403D3644F4BDB6C03F004037B6028
:1011A0007B6800224FF6BE714B4813F087F800228F
:1011B00041F60651494813F081F800228021484841
:1011C00013F07CF8002242F29001464813F076F8C2
:1011D00001224021434813F071F84FF6BE73FB61C2
:1011E00001233B6200237B620023BB6207F11C03E7
:1011F0001946394812F0E8FE41F60653FB61012317
:101200003B6200237B620023BB6207F11C0319468B
:10121000324812F0D9FE0823FB6100233B62002311
:101220007B6207F11C0319462F4812F0CDFE802384
:10123000FB6101233B6200237B620023BB6207F159
:101240001C031946264812F0BFFE42F25003FB6110
:1012500001233B6200237B620023BB6207F11C0376
:101260001946204812F0B0FE4FF40073FB614FF4B2
:1012700088133B6200237B6207F11C0319464FF081
:10128000904012F0A1FE8023FB6101233B62022308
:101290007B620223BB6207F11C031946114812F05E
:1012A00093FE4FF40043FB6100233B6200237B620B
:1012B00007F11C031946094812F086FE002200219E
:1012C000172012F0D4FB172012F0EDFB00BF3037CF
:1012D000BD4680BD001002400010004800040048D8
:1012E000000C004800080048001C004880B500AF12
:1012F0000B4B0C4A1A600A4B06225A60084B40F608
:10130000FF72DA60064B40F6FF729A60044813F0F1
:1013100010F80346002B01D00BF046F800BF80BD4B
:10132000000100200030004080B400AFBFF34F8FB9
:1013300000BF064BDB6803F4E0620449044B13432F
:10134000CB60BFF34F8F00BF00BFFDE700ED00E0B3
:101350000400FA0580B584B000AFF860B9607A6027
:101360007B68002B01D1002306E07A68B968F86831
:1013700016F046FB034600BF18461037BD4680BD39
:1013800080B582B000AF78607868FEF771FF0346E1
:1013900018460837BD4680BD80B588B000AF78607C
:1013A00039603B68DB0FFB77FB7F002B02D03B688B
:1013B0005B4200E03B68BB610A21B8690AF0FAFFB2
:1013C0007861FA7F7B69D11807F10C033B6107F163
:1013D0000C032D22786815F05BFE07F10C0318460C
:1013E0000BF073FFFB7F1946786815F04CFF03463E
:1013F000BA69796918460BF01DF800BF7868203784
:10140000BD4680BD90B587B000AFF860C7E9002346
:101410000A22D7E900010BF07BF8014607F110031F
:101420007B6107F110030022F86815F031FE07F127
:10143000100318460BF049FF0021F86815F023FF50
:101440000446F86815F087FE0146D7E900232046D8
:101450000BF0C0F800BFF8681C37BD4690BD80B4E3
:1014600083B000AF7860012318460C37BD465DF8A5
:10147000047B704780B598B000AF7860396007F1A1
:1014800020037B6507F1200207F108032C49184669
:1014900016F0B0F907F1200318460BF016FF786834
:1014A00015F0E8FD3B68FB653B68002B25D125491D
:1014B000786815F0E6FF20E03B6803F00F03BB659A
:1014C000BA6D07F108031146184615F0D9FE034618
:1014D000197807F124037A6818460BF003F907F12D
:1014E00024031946786815F001FE07F12403184615
:1014F00015F0F6FD3B681B093B603B68002BDBD118
:10150000FB6D0E2B11D807F13C037A680D49184684
:101510000BF012F907F13C031946786815F0E6FD67
:1015200007F13C03184615F0DBFD00BF07F1080387
:10153000184615F0D5FD00BF78686037BD4680BD00
:10154000307C0108447C0108B0B59AB000AF7861E6
:1015500087ED020B39611346FB71786915F08AFD3E
:101560004FF000024FF00003D7E90201FFF7B6FA8F
:101570000346002B09D04249786916F01FF8BC6871
:10158000FB6883F00045C7E90245D7E90201FFF790
:101590002DFB02460B46C7E91423FB79002B09D02B
:1015A000D7E914230A2A73F1000303D23549786975
:1015B00016F004F807F11C01D7E914230846FFF7D9
:1015C00021FF07F11C031946786915F0DDFF07F1CB
:1015D0001C03184615F084FD3B69002B4ADD2A499F
:1015E000786915F0EBFFD7E91401FEF7CFFF02464B
:1015F0000B46D7E90201FEF747FE02460B46C7E954
:1016000018230023FB6531E04FF000021F4BD7E9A0
:101610001801FEF7F1FF02460B46C7E91823D7E988
:101620001801FFF783FA0346FB6407F13403F96CF2
:101630001846FFF7B1FE07F134031946786915F033
:10164000A3FF07F13403184615F04AFDF86CFEF7C6
:1016500069FF02460B46D7E91801FEF715FE024660
:101660000B46C7E91823FB6D0133FB65FA6D3B6937
:101670009A42C9DB00BF78696837BD46B0BD00BF7C
:10168000487C0108447C01084C7C0108000024408F
:101690002DE9B0438EB000AF78604FF000024FF0FC
:1016A0000003C7E90C234FF00002634BC7E90A238C
:1016B000002387F8273000233B620023FB770123B8
:1016C000BB77786815F0D7FD034683F00103DBB2E2
:1016D000002B09D00021786815F0D2FD03461B7855
:1016E0002D2B01D1012300E00023002B01D0012389
:1016F000FB777B68BB61B86915F027FD03463B614A
:10170000B86915F024FD0346FB606DE007F1100396
:1017100018460BF065F803461B78FB75FB7D2D2BF7
:101720005AD0FB7D2E2B03D1012387F8273056E0BA
:10173000FB7D2F2B4BD9FB7D392B48D897F82730D1
:10174000002B21D03B6A01333B624FF000023B4B40
:10175000D7E90A01FFF77AF802460B46C7E90A23E0
:10176000FB7D303B1846FEF7DDFED7E90A23FEF786
:1017700043FF02460B46D7E90C01FEF787FD024600
:101780000B46C7E90C2319E04FF000022B4BD7E9B9
:101790000C01FEF731FF02460B4690469946FB7D51
:1017A000303B1846FEF7BEFE02460B464046494611
:1017B000FEF76CFD02460B46C7E90C23BB7F002BEE
:1017C0000CD0FB7D302B09D00023BB7706E04FF017
:1017D00000024FF0000325E000BF00E000BF07F16A
:1017E000100318460AF0ECFF07F10C0207F1100392
:1017F000114618460AF0CCFF0346002B86D1BB7F6A
:10180000002B04D04FF000024FF000030AE0FB7FF2
:10181000002B05D03C6B7B6B83F00045C7E90C4582
:10182000D7E90C2343EC172BB0EE470AF0EE670A1A
:101830003837BD46BDE8B0830000F03F00002440CB
:1018400080B58AB000AFF860B9607A60FB68D3F801
:101850008030202B0CBF01230023DBB2002B00F0D3
:101860000081FB6893F87830012B01D10223F9E065
:10187000FB68012283F87820FB680022C3F88420EB
:10188000FB682222C3F88020FB6801221A6611F04F
:101890000FF93862FB684FF6FE72A3F85820FB6818
:1018A0004FF6FE72A3F85A20FB689B68B3F5805F81
:1018B0000ED1FB681B69002B05D1FB6840F2FF12BB
:1018C000A3F85C202DE0FB68FF22A3F85C2028E051
:1018D000FB689B68002B0DD1FB681B69002B04D1B2
:1018E000FB68FF22A3F85C201BE0FB687F22A3F8C3
:1018F0005C2016E0FB689B68B3F1805F0DD1FB684C
:101900001B69002B04D1FB687F22A3F85C2008E050
:10191000FB683F22A3F85C2003E0FB680022A3F8E9
:101920005C20FB68B3F85C30FB83FB689B68B3F515
:10193000805F0AD1FB681B69002B06D100237B6204
:10194000B86815F03FFEB86105E0B86815F03AFEDA
:1019500078620023BB61FB68002283F878206FE087
:10196000FB681B68DB6903F01003102B0CBF01231D
:101970000023DBB2002B14D0FB681B6810221A6214
:10198000B86815F0E8FB0346002B14BF01230023C1
:10199000DBB2002B05D0FB682022C3F88020002397
:1019A00060E0FB681B68DB6903F02003202B0CBFA1
:1019B00001230023DBB2002B28D07B6A002B0ED141
:1019C000FB681B689B8C9BB2DAB2FB8BDBB21340CB
:1019D000BB75BB7D1946B86815F082FC0DE0FB684D
:1019E0001B689B8C9BB2DAB2FB8BDBB21340FB759E
:1019F000FB7D1946B86815F073FCFB68B3F85A30E4
:101A00009BB2013B9AB2FB68A3F85A207B68B3F102
:101A1000FF3F15D011F04CF802463B6AD31A7A68A2
:101A20009A4202D37B68002B01D1012300E00023FE
:101A3000002B05D0FB682022C3F88020032311E08F
:101A4000FB68B3F85A309BB2002B14BF012300236C
:101A5000DBB2002B84D1FB682022C3F88020002356
:101A600000E0022318462837BD4680BD80B483B00D
:101A700000AF786039607B683A681A607B68184606
:101A80000C37BD465DF8047B704780B483B000AF6F
:101A900078607B681B68002B0CBF01230023DBB23E
:101AA00018460C37BD465DF8047B704780B582B0A0
:101AB00000AF78607B681B68002B06D07B681B68D2
:101AC0001846FEF7D5FB034600E00023184608370A
:101AD000BD4680BD80B483B000AF786039607B685C
:101AE0001A683B6813441B7818460C37BD465DF8EE
:101AF000047B704780B582B000AF786039607B6846
:101B000039681846FFF7B2FF7B6818460837BD46AC
:101B100080BD80B584B000AF786007F10C037968B0
:101B20001846FFF7E7FFFB6818461037BD4680BD33
:101B300080B485B000AFF860B9607A60FB68BA68BD
:101B40001A60FB687A685A60FB6818461437BD460D
:101B50005DF8047B704780B483B000AF78607B6829
:101B60001B68002B0CBF01230023DBB218460C3787
:101B7000BD465DF8047B704780B483B000AF7860E9
:101B80007B685B6818460C37BD465DF8047B704780
:101B900080B483B000AF786039607B681A683B68B6
:101BA00013441B7818460C37BD465DF8047B70471C
:101BB00080B483B000AF786000BF18460C37BD46D4
:101BC0005DF8047B704780B483B000AF78607B68B9
:101BD00000221A607B6800225A607B6801221A7218
:101BE0007B6818460C37BD465DF8047B704780B5AE
:101BF00084B000AFF860B9601346FB71FB68BA6847
:101C00001A60BB68002B04D0B868FEF731FB0346AE
:101C100000E00023FA685360FB68FA791A72FB68E7
:101C200018461037BD4680BD80B485B000AFF8605F
:101C3000B9607A60FB70FB68BA681A60FB687A6802
:101C40005A60FB68FA781A72FB6818461437BD466A
:101C50005DF8047B704780B483B000AF78607B6828
:101C60001B6818460C37BD465DF8047B704780B48E
:101C700083B000AF78607B681B7A012B0CBF012317
:101C80000023DBB218460C37BD465DF8047B704775
:101C900080B483B000AF78607B685B6818460C370F
:101CA000BD465DF8047B704780B483B000AF7860B8
:101CB0007B681B68002B14BF01230023DBB218468E
:101CC0000C37BD465DF8047B7047B0B582B000AFFD
:101CD000786039607C683868FFF7BDFF0546386872
:101CE000FFF7D6FF03461A4629462046FFF720FF96
:101CF0003868FFF7BCFF03461A467B681A727B6898
:101D000018460837BD46B0BD80B582B000AF7860D8
:101D1000396039687868FFF7D8FF78680837BD46BA
:101D200080BD80B483B000AF78607B681B681846C4
:101D30000C37BD465DF8047B704780B483B000AFBC
:101D400078607B6818460C37BD465DF8047B7047A9
:101D500080B483B000AF78607B6818460C37BD460E
:101D60005DF8047B704780B483B000AF78607B6817
:101D7000B3F90A30002B06D07B68B3F90A301B0197
:101D80007A68134400E0002318460C37BD465DF81E
:101D9000047B704780B582B000AF78607868FFF749
:101DA000E2FF034618460837BD4680BD80B483B0C5
:101DB00000AF786039603B68002B05D03A687B68DB
:101DC000D31A1B111AB200E000227B685A8100BFAF
:101DD0000C37BD465DF8047B704780B483B000AF1C
:101DE000786039603A687B68D31A1B111AB27B6835
:101DF0005A8100BF0C37BD465DF8047B704780B543
:101E000084B000AFF860384680E80E003B461846C4
:101E1000FFF72DFF0346002B07D0FB681B7A03F06A
:101E20007F03DAB2FB681A7206E0FB681B7A63F084
:101E30007F03DAB2FB681A723B461846FFF70BFFC6
:101E40000246FB68DA6000BF1037BD4680BD80B433
:101E500083B000AF78607B68DB6818460C37BD46FE
:101E60005DF8047B704780B483B000AF78607B6816
:101E70001B7A5BB2DBB2DB09DBB218460C37BD461E
:101E80005DF8047B704780B483B000AF78607B68F6
:101E900000225A817B6800221A727B680022DA6075
:101EA00000BF0C37BD465DF8047B704780B485B039
:101EB00000AFF860B9607A60FB68BA681A60FB68C6
:101EC000BA685A60BB68002B03D0BA687B681344B9
:101ED00000E00023FA689360BB68002B03D0BA6867
:101EE0007B68134400E00023FA68D360FB6800229B
:101EF0001A74FB6818461437BD465DF8047B7047BA
:101F000080B483B000AF78607B681B7C18460C37C8
:101F1000BD465DF8047B704780B582B000AF786045
:101F200078680AF081FC034618460837BD4680BD34
:101F300080B485B000AFF860B9607A60FB685A6819
:101F4000BB681A60FB689A68FB685B68D31A1A461C
:101F50007B681A6000BF1437BD465DF8047B70478C
:101F600080B586B000AF786039607B68596807F14A
:101F700008033A6818460AF064FC07F1080319469A
:101F800078680AF06FFC78617B69002B01D07B696F
:101F900013E07B685B683B617B685A683B681A4466
:101FA0007B685A607B685B68591C7A6851600022C4
:101FB0001A70786800F03DF83B6918461837BD463E
:101FC00080BD80B483B000AF78607B6801221A7452
:101FD00000BF0C37BD465DF8047B704780B483B00A
:101FE00000AF78607B681A687B685A607B68DA6843
:101FF0007B689A607B6800221A7400BF0C37BD466C
:102000005DF8047B704780B483B000AF78603960BE
:102010007B685A683B681A447B689B689A4294BF05
:1020200001230023DBB218460C37BD465DF8047B64
:10203000704780B483B000AF786000BF0C37BD46F6
:102040005DF8047B704780B584B000AF786039607C
:1020500039687868FFF7D7FF034683F00103DBB2E6
:10206000002B04D07B6801221A7400230CE07B68EB
:102070005B68FB607B685A683B681A447B685A60FF
:102080007868FFF7D6FFFB6818461037BD4680BD5D
:1020900080B582B000AF7860396039687868FFF742
:1020A000B2FF034683F00103DBB2002B04D07B6850
:1020B00001221A74002308E07B689A683B685B423F
:1020C0001A447B689A607B689B6818460837BD464F
:1020D00080BD80B483B000AF78607B6800221A7244
:1020E0007B6818460C37BD465DF8047B704780B5A9
:1020F00082B000AF7860786800F029F80346002BC2
:1021000001D07B6800E0002318460837BD4680BD3B
:1021100080B582B000AF78607868FFF7E8FF0346CB
:1021200018460837BD4680BD80B483B000AF7860E4
:102130007B681B7A03F00803002B14BF01230023E4
:10214000DBB218460C37BD465DF8047B704780B49F
:1021500083B000AF78607B681B7A03F02003002B0C
:1021600014BF01230023DBB218460C37BD465DF8CF
:10217000047B704780B582B000AF7860786800F06B
:1021800094F80346002B0CBF01230023DBB2184652
:102190000837BD4680BD80B582B000AF78607868F2
:1021A000FFF7C2FF034683F00103DBB2184608378E
:1021B000BD4680BD80B582B000AF78600B46FB7035
:1021C0000621786800F080F87B68FA781A7000BF02
:1021D0000837BD4680BD80B584B000AFF86087ED9C
:1021E000000B0C21F86800F06FF8F968D7E90023BC
:1021F000C1E9002300BF1037BD4680BD80B582B065
:1022000000AF78600021786800F05EF800BF083702
:10221000BD4680BD80B584B000AFF860384680E828
:102220000E003B461846FFF722FD0346002B04D064
:102230000421F86800F048F803E00521F86800F090
:1022400043F83B461846FFF706FD0246FB681A6056
:102250003B461846FFF71CFD0246FB685A6000BF6C
:102260001037BD4680BD80B582B000AF7860402198
:10227000786800F029F87B68184600F086FA7B68D9
:1022800018460837BD4680BD80B582B000AF786083
:102290002021786800F018F87B68184600F075FA7D
:1022A0007B6818460837BD4680BD80B483B000AF58
:1022B00078607B681B7A03F07F03DBB218460C372B
:1022C000BD465DF8047B704780B483B000AF786092
:1022D0000B46FB707B681B7A23F07F03DAB27B68C6
:1022E0001A727B681A7AFB781343DAB27B681A7227
:1022F00000BF0C37BD465DF8047B704780B483B0E7
:1023000000AF78607B6800221A607B6818460C3743
:10231000BD465DF8047B704780B483B000AF786041
:1023200039607B683A681A607B6818460C37BD468E
:102330005DF8047B704780B483B000AF78607B6841
:102340001B6818460C37BD465DF8047B704780B4A7
:1023500085B000AFF860B9607A60FB687A681A608F
:10236000FB68BA685A60FB6818461437BD465DF8CA
:10237000047B704780B483B000AF786039607B68BD
:102380003A681A607B6818460C37BD465DF8047BD6
:10239000704780B584B000AF78600023FB6006E032
:1023A000FB680133FB607868FFF7F4FC78607B68BA
:1023B000002BF5D1FB6818461037BD4680BD80B4B0
:1023C00083B000AF78607B6818460C37BD465DF877
:1023D000047B704780B483B000AF78607B680022D4
:1023E0001A607B6818460C37BD465DF8047B704761
:1023F00080B483B000AF786039607B683A681A6057
:102400007B6818460C37BD465DF8047B704780B585
:1024100084B000AF78607B681B681846FFF798FCB3
:10242000024607F10C0311461846FFF775FFFB68DB
:1024300018461037BD4680BD80B483B000AF7860C9
:1024400039607B681A683B681B689A420CBF01239D
:102450000023DBB218460C37BD465DF8047B70479D
:1024600080B582B000AF78607B681B681846FFF7C4
:1024700091FC02467B681A607B6818460837BD46A7
:1024800080BD90B587B000AF786039607B68184632
:10249000FFF799FB7B680C331846FFF72FFF3B686B
:1024A000002B28D03868FFF7D2FC04463868FFF7C5
:1024B000DAFC0346002B01D0002200E0012207F1E4
:1024C000080321461846FFF792FB7B681A4607F17E
:1024D000080303CB106051601B7813723868FFF754
:1024E00037FC024607F1140311461846FFF714FFA4
:1024F0007B687A69DA607B6818461C37BD4690BDF8
:1025000080B483B000AF786039607B683A6807CAEE
:1025100083E8070078680C37BD465DF8047B704798
:1025200080B483B000AF78607B68DB6818460C37F6
:10253000BD465DF8047B704780B582B000AF78601F
:1025400039607B6839681846FFF79BFF7B6818463F
:102550000837BD4680BD80B483B000AF78607B682B
:1025600018460C37BD465DF8047B704780B483B0D5
:1025700000AF78607B6800221A607B6818460C37D1
:10258000BD465DF8047B704780B483B000AF7860CF
:1025900039607B683A681A607B6818460C37BD461C
:1025A0005DF8047B704780B582B000AF7860396019
:1025B0003B681B6819467868FFF7BEFF78680837E4
:1025C000BD4680BD80B483B000AF786039607B6861
:1025D0001A683B681B689A4214BF01230023DBB2D0
:1025E00018460C37BD465DF8047B704780B582B055
:1025F00000AF78607B681B681846FFF7CBFB02468C
:102600007B681A607B6818460837BD4680BD80B479
:1026100083B000AF786039607B683A681A607B6885
:1026200018460C37BD465DF8047B704780B582B014
:1026300000AF78607B681846FFF7D0FC7B681833E2
:102640001846FFF7DBFD00BF0837BD4680BD80B5EB
:1026500084B000AFF860B9607A60FB687A68B968E6
:102660001846FFF723FCFB6818331846FFF731FDC7
:10267000FB6818461037BD4680BD80B483B000AFFC
:1026800078607B6818460C37BD465DF8047B704760
:1026900080B584B000AF78607B6803F1180207F161
:1026A0000C0311461846FFF737FEFB681846103733
:1026B000BD4680BD80B483B000AF78607B681846AB
:1026C0000C37BD465DF8047B704780B483B000AF23
:1026D00078607B68183318460C37BD465DF8047B7C
:1026E000704780B483B000AF78607B6818331846B9
:1026F0000C37BD465DF8047B704780B483B000AFF3
:1027000078607B68183318460C37BD465DF8047B4B
:10271000704780B584B000AF786039603868FFF7E3
:10272000FBFBF860FB68002B01D1002317E07B68FE
:102730005B68002B09D07B685B68F9681846FFF777
:102740004CFB7B68FA685A6005E07B68FA681A609F
:102750007B68FA685A60F868FFF795FBFB681846D3
:102760001037BD4680BD80B582B000AF786039605B
:1027700039687868FFF7CDFF03461846FFF71FFE5C
:10278000034618460837BD4680BD80B483B000AF0D
:1027900078607B6800221A607B6800225A6000BF64
:1027A0000C37BD465DF8047B704780B584B000AF40
:1027B000786039607B681B68FB600BE0F868FFF7A6
:1027C000D2FAB860BA683B689A4201D1FB6805E06A
:1027D000BB68FB60FB68002BF0D100231846103764
:1027E000BD4680BD80B584B000AF786039603B687D
:1027F000002B1AD039687868FFF7D7FFF86038687F
:10280000FFF7B1FAB860FB68002B04D0B968F8682C
:10281000FFF7CCFA02E07B68BA681A60BB68002B4D
:1028200004D17B68FA685A6000E000BF1037BD46EB
:1028300080BD80B582B000AF78607B681B681846A9
:10284000FFF7A7FD034618460837BD4680BD80B593
:1028500084B000AF0346FB71012000F035F8F8604A
:1028600002E0FB680233FB60FB681B78002B05D09D
:10287000FB6801331B78FA799A42F2D1FB681B7826
:1028800018461037BD4680BD80B584B000AF034602
:10289000FB71002000F018F8F860FB681B78002B33
:1028A00001D100230CE0FB681B78FA799A4203D12E
:1028B000FB6801331B7803E0FB680233FB60ECE745
:1028C00018461037BD4680BD80B483B000AF0346C4
:1028D000FB71FB79002B01D0022300E00023044AA6
:1028E000134418460C37BD465DF8047B704700BFA3
:1028F0005C7C010880B584B000AF786039603B46ED
:102900001846FFF718FD034600BFFB60FB68002B6D
:1029100005D07B68F968184600F016FD04E0012236
:1029200000217868FFF763F978681037BD4680BDED
:1029300090B587B000AF7860396007F10C03796813
:102940001846FFF7D7FF00BF07F10C031846FFF743
:10295000ABF90346002B11D007F10C031846FFF723
:102960007AF9044607F10C031846FFF791F903467C
:102970001A462146386814F06BFD03E03968786820
:1029800009F0DFFF00BF1C37BD4690BD80B483B0A7
:1029900000AF7860012318460C37BD465DF8047B14
:1029A000704780B483B000AF786039607B683A6864
:1029B0001A607B6818460C37BD465DF8047B70478B
:1029C00080B596B000AF786039603B687B647B6C03
:1029D000BB617B681B68BB64BB6CFB61FB697B6193
:1029E000BA697B699A4201D1012398E0BB69002B47
:1029F00002D07B69002B01D1002390E007F118037E
:102A00007B657B6D1B68002B06D107F128031846F8
:102A1000FFF7E0FCBB6A0CE07B6D1B681846FFF714
:102A200080F9024607F12C0311461846FFF7E0FC37
:102A3000FB6A3B617B69002B06D107F13003184626
:102A4000FFF7C8FC3B6B0BE07B691846FFF769F9A1
:102A5000024607F1340311461846FFF7C9FC7B6BA9
:102A6000FB6007F118033B6507F120031846FFF7E9
:102A7000B1FC3B6A3B6407F1400207F110031146C9
:102A80001846FFF7D9FC034687F84F3007F12403B7
:102A90001846FFF79FFC7B6AFB6307F13C0207F1D6
:102AA0000C0311461846FFF7C7FC034687F84E3063
:102AB00097F84F30002B05D097F84E30002B01D0FF
:102AC00001232CE097F84F30002B03D197F84E30BC
:102AD000002B01D0002322E007F110031846FFF776
:102AE00096FC0346BB6307F10C031846FFF78FFC07
:102AF000024607F138031146184609F0F4FE034672
:102B0000002B01D000230AE007F110031846FFF75D
:102B1000A7FC07F10C031846FFF7A2FCA1E7002B66
:102B200001D0012300E0002318465837BD4680BD80
:102B300080B483B000AF786039607B683A681A600F
:102B40007B6818460C37BD465DF8047B704780B53E
:102B50009EB000AF7860396007F1140339681846F9
:102B6000FFF755FD7B681A6807F1180311461846F0
:102B7000FFF74DFDBB693B617A693B699A4201D120
:102B800001239EE07B69002B02D03B69002B01D121
:102B9000002396E000237B6707F114033B673B6F3C
:102BA0001B68002B06D107F130031846FFF7DEFC47
:102BB0003B6B0CE03B6F1B681846FFF7B2F8024610
:102BC00007F1340311461846FFF7DEFC7B6BFB6010
:102BD00051E007F1580307F10C0211461846FFF7C0
:102BE000E2FC07F158031846FFF7B5FC0346184608
:102BF000FFF796FC0346BB6607F13C0307F10C02A6
:102C000011461846FFF7CFFC07F13C031846FFF7C3
:102C1000A2FC024607F14C0311461846FFF770FC70
:102C200007F1240307F14C021146184609F06EFE25
:102C300007F1100007F124030ECB0AF01AFC02463C
:102C400007F1200311461846FFF766FB3B6A1A4658
:102C500007F168031146184609F045FE0346002BAC
:102C600001D000232DE07B6F01337B6707F10C035C
:102C70001846FFF7BBFC07F11403FB6607F11C03C2
:102C80001846FFF773FCFB69BB6307F1380207F1D5
:102C90000C0311461846FFF795FC0346002B98D10C
:102CA0003B69002B05D03B691846FFF7C2FD034680
:102CB00001E0002300BF7A6F9A420CBF012300237A
:102CC000DBB2002B01D0012300E000231846783747
:102CD000BD4680BD80B485B000AFF860B9607A6051
:102CE000FB68BA681A60FB687A685A60FB68184625
:102CF0001437BD465DF8047B704780B586B000AFE1
:102D0000F860B9607A60FB685B687A689A4202D9B9
:102D1000FB685B6800E07B687B61FB681B687A6925
:102D20001946B86814F06CFE38613B69002B01DA73
:102D3000042305E03B69002B01DD022300E00123B1
:102D400018461837BD4680BD80B483B000AF7860A8
:102D500039607B683A681A607B6818460C37BD4654
:102D60005DF8047B704780B584B000AF786039604F
:102D700007F10C0339681846FFF713FE07F10C033F
:102D80001946786809F0EBFD034618461037BD4632
:102D900080BD80B584B000AF7860396007F10C0366
:102DA00039681846FFF7C4FE07F10C031946786826
:102DB00009F0F1FD034618461037BD4680BD80B5C9
:102DC00086B000AFF86087ED000B07F1100397EDB8
:102DD000000B184609F0FBFD07F110031946F868CF
:102DE00009F007FE034618461837BD4680BD80B57A
:102DF00086B000AFF860B9607A6007F11403B96873
:102E0000184609F012FE07F114031946F86809F094
:102E10001BFE034618461837BD4680BD80B586B0F8
:102E200000AFF860B9607A6007F110037A68B9689A
:102E30001846FFF74FFF07F110031946F86809F02D
:102E40001FFE034618461837BD4680BD80B586B0C4
:102E500000AFF860C7E9002307F11001D7E90023AC
:102E6000084609F029FE07F110031946F86809F031
:102E700035FE034618461837BD4680BD80B586B07E
:102E800000AFF860C7E9002307F11001D7E900237C
:102E9000084609F03FFE07F110031946F86809F0EB
:102EA0004BFE034618461837BD4680BD80B584B03A
:102EB00000AF78600B46FB70FA7807F10C031146FF
:102EC000184609F055FE07F10C031946786809F019
:102ED0005FFE034618461037BD4680BD80B584B0FE
:102EE00000AF786007F10C031946786809F06CFEB2
:102EF000034618461037BD4680BD80B483B000AF8E
:102F00000346FB71FB792F2B04D9FB79392B01D8B0
:102F1000012300E0002318460C37BD465DF8047B12
:102F200070470000000000002DE9B04F2DED028B2E
:102F3000A6B000AF78653965002387F897307B6DC0
:102F40001B782B2B08D02D2B0AD1012387F8973023
:102F50007B6D01337B6503E07B6D01337B6500BFD7
:102F60007B6D1B781846FFF7C8FF034683F001030B
:102F7000DBB2002B05D07B6D1B782E2B01D00123FB
:102F800000E00023002B01D00023D5E14FF0000228
:102F90004FF00003C7E922230023A7F886304FF043
:102FA000FF324FF0FF33C7E91C2354E07B6D1B78E1
:102FB000303B87F86F30D7E9222312F1663FBA49D8
:102FC0008B4151D2D7E9224522462B464FF00000D3
:102FD0004FF00001990041EA9271900002460B46C1
:102FE00012EB040843EB050918EB0803BB6149EB3E
:102FF0000903FB61D7E90689C7E9228997F86F3091
:1030000000223B647A64D7E910120B46DB43BB63B2
:103010001346DB43FB63D7E92223D7E90E4521465C
:103020009142294671EB030320D397F86F300022B9
:103030003B637A63D7E92223D7E90C45214651182F
:10304000396129464B417B61D7E90434C7E9223411
:103050007B6D01337B657B6D1B781846FFF74DFF59
:103060000346002BA2D102E000BF00E000BF7B6D51
:103070001B78002B38D197F89730002B1AD04FF0DF
:1030800000024FF00043C7E91823D7E92223012AA1
:1030900073F1004328D2D7E9222300215042B862BD
:1030A00061EB0303FB62D7E90A23386D09F0A8FD41
:1030B000012341E1D7E92223386D09F0B4FD012352
:1030C0003AE1D7E922014FF00A024FF00003FDF781
:1030D00075FD02460B46C7E92223B7F986309BB23D
:1030E00001339BB2A7F88630D7E92223B3F5801FBE
:1030F000E7D209E0B7F986309BB201339BB2A7F85B
:1031000086307B6D01337B657B6D1B781846FFF73E
:10311000F4FE0346002BEDD17B6D1B782E2B4CD19A
:103120007B6D01337B6540E0D7E92223B2F1993F03
:103130005E498B4136D2D7E9224522462B464FF0D5
:1031400000004FF00001990041EA927190000246A0
:103150000B4612EB040A43EB050B1AEB0A03BB60A8
:103160004BEB0B03FB60D7E902AB52465B46796D34
:1031700009783039C9B2C9B2002039627862D7E91A
:10318000084521465118396029464B417B60D7E9F3
:103190000034C7E92234B7F986309BB2013B9BB2B9
:1031A000A7F886307B6D01337B657B6D1B781846F5
:1031B000FFF7A3FE0346002BB6D10023C7F88030EB
:1031C0007B6D1B78652B04D07B6D1B78452B40F005
:1031D00083807B6D01337B65002387F87F307B6DB7
:1031E0001B782D2B06D1012387F87F307B6D0133AF
:1031F0007B6560E07B6D1B782B2B5CD17B6D013395
:103200007B6558E0D7F8802013469B0013445B0091
:103210001A467B6D1B78303B1344C7F88030B7F9F2
:103220008620D7F880301344B3F59A7F40DD97F8B5
:103230007F30002B10D097F89730002B02D09FEDF5
:10324000167B01E09FED167BB0EE470AF0EE670AB1
:10325000386DFEF7C0FF1BE097F89730002B0AD0BF
:1032600009F0F4FC53EC102B08EE102A83F0004315
:1032700008EE903A05E009F0E9FCB0EE408AF0EE85
:10328000608AB0EE480AF0EE680A386DFEF7A3FFD8
:10329000012351E0AFF30080000000000000008037
:1032A0000000000000000000999999199999010007
:1032B0007B6D01337B657B6D1B781846FFF71DFE28
:1032C0000346002B9ED197F87F30002B04D0D7F80F
:1032D00080305B42C7F88030B7F98630D7F880205D
:1032E0001344C7F880307B6D1B78002B01D000237E
:1032F00022E0D7E92201FDF749F902460B46D7F84B
:10330000800043EC102B09F0B3FC87ED160B97F807
:103310009730002B06D0BB6DBB64FB6D83F0004380
:10332000FB6403E097ED167B87ED127B97ED120BA4
:10333000386DFEF750FF012318469837BD46BDECA7
:10334000028BBDE8B08F00BF80B582B000AF78605F
:1033500039603868FEF7A9FF0346042B02D0052B1D
:1033600009D011E03B6819683B685A680123786806
:10337000FEF75AFC0BE03B6819683B685A6800236B
:103380007868FEF751FC02E07868FEF71CFC78686C
:103390000837BD4680BD80B483B000AF78600B466F
:1033A000FB707B68FA781A707B6818460C37BD464C
:1033B0005DF8047B704780B483B000AF7860012370
:1033C00018460C37BD465DF8047B704780B483B067
:1033D00000AF7860012318460C37BD465DF8047BCA
:1033E000704780B483B000AF7860012318460C3773
:1033F000BD465DF8047B704780B483B000AF786051
:10340000012318460C37BD465DF8047B704780B435
:1034100083B000AF78607B680A221A707B68184618
:103420000C37BD465DF8047B704780B483B000AFB5
:1034300078600B46FB707B68FA781A707B681846D8
:103440000C37BD465DF8047B704780B584B000AF93
:1034500078607B681B78013BDAB207F10C031146F8
:103460001846FFF7E2FF3B7B18461037BD4680BD8C
:1034700080B483B000AF78607B681B78002B0CBFF2
:1034800001230023DBB218460C37BD465DF8047BF0
:10349000704780B485B000AF38713B797B730023EF
:1034A0003A7B62F307037A7B62F30F2318461437E3
:1034B000BD465DF8047B704780B483B000AF786090
:1034C00039607B683A681A607B6818460C37BD46DD
:1034D0005DF8047B704780B582B000AF78607B6890
:1034E00018687B68191D7B680C331A46FEF720FDAF
:1034F0007B6800229A607B68DB68002B04D17B68C4
:103500001B681846FEF75DFD00BF0837BD4680BD4D
:1035100080B582B000AF786039603B681A683B685C
:103520009B6819461046FEF71BFD01463B689A68EA
:1035300000237868FEF778FB78680837BD4680BDC1
:1035400080B582B000AF78600B46FB707B689B68EB
:103550005A1C7B68DB689A420AD27B685A687B688F
:103560009B68581C796888601344FA781A7004E0E4
:103570007B681B681846FEF724FD00BF0837BD4670
:1035800080BD80B582B000AF78607B681B6818464C
:10359000FEF7B6FC034683F00103DBB2184608379A
:1035A000BD4680BD80B582B000AF786039603B68B1
:1035B0005A683B689B68134400221A703B6859683C
:1035C0003B689A6800237868FEF72EFB7868083716
:1035D000BD4680BD80B483B000AF0346FB80FB884E
:1035E000B3F5584F05D3FB88B3F55C4F01D20123E7
:1035F00000E0002318460C37BD465DF8047B704799
:1036000080B483B000AF0346FB80FB88B3F55C4F0A
:1036100005D3FB88B3F5604F01D2012300E00023FE
:1036200018460C37BD465DF8047B704780B483B004
:1036300000AF78607B6800221A807B6800225A60A5
:103640007B6818460C37BD465DF8047B704780B533
:1036500082B000AF78600B467B807B881846FFF70E
:10366000B9FF0346002B07D07B88C3F309039AB246
:103670007B681A80002318E07B881846FFF7C0FF9C
:103680000346002B0DD07B681B889A027B88C3F30E
:103690000903134303F580331A467B685A600123FC
:1036A00003E07A887B685A60012318460837BD46D4
:1036B00080BD80B483B000AF78607B685B681846DB
:1036C0000C37BD465DF8047B7047000090B583B0B1
:1036D00000AF78607B680F4AA2FB0323DC0811F07F
:1036E0001FFC03460C4AA2FB03239B0C04FB03F3C1
:1036F0007B6002E07B68013B7B607B68002B14BF32
:1037000001230023DBB2002BF4D100BF00BF0C3734
:10371000BD4690BDCDCCCCCC83DE1B4380B400AF86
:10372000034B02221A7000BFBD465DF8047B704750
:103730000200002080B586B000AFF860B9607A6002
:10374000FB70F86807F110037B6107F110031A465C
:103750001B4914F04FF807F11003184609F0B5FDA6
:10376000F9684FF00002174BC1E90623164B1B788E
:103770000133DAB2144B1A70134B1A78FB6883F8D2
:103780002020FB68002283F82120FB6824331846A0
:1037900009F0B3FABB68002B03D0F968B86809F0E8
:1037A000EBFAFB687968184613F007FDFB68FA78B6
:1037B00083F82120FB6818461837BD4680BD00BF3E
:1037C000707C01080000F03F4001002080B584B00B
:1037D00000AF78607B680833184613F04BFC7B68B9
:1037E00003F1200007F10803FB6007F108031A4604
:1037F000064913F0FFFF07F10803184609F065FDBD
:103800007B6818461037BD4680BD00BF707C01083C
:1038100080B483B000AF78607B6893F8203018469E
:103820000C37BD465DF8047B704780B483B000AFB1
:1038300078607B6818460C37BD465DF8047B70479E
:1038400080B483B000AF78607B68D3E9062343EC93
:10385000172BB0EE470AF0EE670A0C37BD465DF84D
:10386000047B704780B485B000AFF86087ED000B33
:10387000F968D7E90023C1E9062300BF1437BD4624
:103880005DF8047B704780B584B000AFF860B96024
:103890001346FB80FB881A46B968F86800F005F803
:1038A000FB6818461037BD4680BD80B485B000AFB8
:1038B000F860B9601346FB80FB68FA889A80FB6861
:1038C000BA681A6000BF1437BD465DF8047B7047C4
:1038D00080B584B000AFF8600B467A60FB72FB687D
:1038E0001868FB689988FB7A002B01D0012300E05F
:1038F00000231A4610F0E2FC7868FFF7E7FE00BFED
:103900001037BD4680BD80B584B000AFF8607A60E6
:103910003B600B46FB72FB7A7A681946F868FFF742
:10392000D7FFFB7A83F00103DBB23A681946F868E7
:10393000FFF7CEFF00BF1037BD4680BD80B485B015
:1039400000AFF860B9607A603B60FB68BA681A60E3
:10395000FB687A685A60FB683A689A60FB681846A8
:103960001437BD465DF8047B7047000080B483B017
:1039700000AF0346FB71064AFB791370054AFB79D9
:10398000137000BF0C37BD465DF8047B704700BF65
:10399000700100207101002080B483B000AF0346A5
:1039A000FB71044AFB79137000BF0C37BD465DF80C
:1039B000047B70477001002080B400AF034B1B787C
:1039C000DBB21846BD465DF8047B704770010020ED
:1039D00080B483B000AF0346FB71044AFB791370D7
:1039E00000BF0C37BD465DF8047B704771010020B5
:1039F00080B400AF034B1B78DBB21846BD465DF8C0
:103A0000047B70477101002080B582B000AF03468F
:103A1000FB71FFF7EDFF03461946054809F0FDF974
:103A2000FB791846FFF7D4FF00BF0837BD4680BDBD
:103A30007401002080B500AF044809F003FA034682
:103A40001846FFF7C5FF00BF80BD00BF740100200E
:103A500080B582B000AF0346FB71FFF7ADFF0346B0
:103A60001946054809F0D9F9FB791846FFF794FF84
:103A700000BF0837BD4680BD7C01002080B500AF87
:103A8000044809F0DFF903461846FFF785FF00BF39
:103A900080BD00BF7C01002080B400AF084B1B78C4
:103AA000DBB2002B04D1074B1B78DBB2002B01D01B
:103AB000012300E000231846BD465DF8047B7047F3
:103AC000700100207101002080B582B000AF034674
:103AD000FB71FB791846FFF797FFFB791846FFF754
:103AE000B7FF00BF0837BD4680BD80B500AFFFF708
:103AF000A1FFFFF7C3FF00BF80BD80B584B000AF5A
:103B0000F860B9607A60FB680433184613F0B2FAC3
:103B1000FB68BA681A60FB6804337968184613F0CA
:103B20004CFBFB6818461037BD4680BD80B584B09D
:103B300000AFF860B9607A60F86813F09BFAFFF79D
:103B40003BFF0346002B0FD0BB681B68184612F0E2
:103B500067FCBB681B687A68F9681846FDF770FE59
:103B600002E0F86813F0E0FBF86813F09BFB0346F3
:103B70001B780A2B06D0F86813F094FB03461B78D9
:103B80000D2B01D1012300E00023002BE9D100BF60
:103B9000F8681037BD4680BDB0B582B000AF786020
:103BA0003960FFF709FF0346002B15D07B681B68BF
:103BB000184612F035FC7B681C68386813F002FD6B
:103BC0000546386813F0C7FA03469AB24FF0FF3340
:103BD0002946204612F072FC00BF0837BD46B0BD32
:103BE00080B582B000AF786039603B680433194615
:103BF000786813F0A0FD78680837BD4680BD0000E6
:103C000080B592B000AF786039607B68181D07F10D
:103C10000803BB6207F108031A464E4913F0EAFD98
:103C200007F10803184609F050FB7B6803F11C00FC
:103C300007F10C03FB6207F10C031A46454913F028
:103C4000D9FD07F10C03184609F03FFB7B6803F12F
:103C5000340007F110033B6307F110031A463D4996
:103C600013F0C8FD07F11003184609F02EFB7B681E
:103C700003F14C0007F114037B6307F114031A46A8
:103C8000344913F0B7FD07F11403184609F01DFB82
:103C90007B6803F1640007F11803BB6307F11803A5
:103CA0001A462C4913F0A6FD07F11803184609F02F
:103CB0000CFB7B68002283F87C207B68002283F861
:103CC0007D207B68E433402223491846FFF7DBFD63
:103CD0007B68EC33802220491846FFF7D4FD7B68CF
:103CE00003F1F40007F11C03FB6307F11C031A4600
:103CF0001A4913F07FFD07F11C03184609F0E5FA95
:103D00007B6803F5867007F120033B6407F120030D
:103D10001A46134913F06EFD07F12003184609F007
:103D2000D4FA7B6803F5927007F124037B6407F1F2
:103D300024031A460B4913F05DFD07F124031846CE
:103D400009F0C3FA7B683A681A607B6818464837FE
:103D5000BD4680BD707C010800080048747C0108E5
:103D60007C7C0108847C010880B582B000AF78605B
:103D70007B6803F1E400084B084A0021FFF7C3FD0C
:103D80007B6803F1EC00054B054A0121FFF7BBFD01
:103D900000BF0837BD4680BD40420F0080841E0032
:103DA000C0C62D0080B582B000AF786039603B6836
:103DB0004C331946786813F0BEFC3B684C33184608
:103DC00013F054FA00BF78680837BD4680BD80B450
:103DD00083B000AF78607B685B6818460C37BD46DF
:103DE0005DF8047B704780B483B000AF78607B6877
:103DF0005B6818460C37BD465DF8047B70470000D1
:103E000082B0B0B5ADF52E7D00AF07F52E74A4F5E8
:103E10002B74206007F52E70A0F52C70016007F55B
:103E20002E71A1F52D710A60C7F8CC32B44B1B7806
:103E3000DBB2022B0CBF01230023DBB2002B00F00E
:103E4000B683FFF76BFC07F15803C7F8983207F108
:103E5000580307F14000202241F2883113F018F98D
:103E600007F15803184609F030FA07F15C03C7F868
:103E70009C3207F15C0307F12800202241F28831CF
:103E800013F006F907F15C03184609F01EFA07F172
:103E90001003184613F0EEF807F14003184613F02C
:103EA000E5F907F52E73A3F52D730D21186813F0AE
:103EB000FEF907F52E73A3F52D730A21186813F088
:103EC000F6F94DE307F52E73A3F5047007F52E738D
:103ED000A3F52D731A688B4908F02EFC07F52E7395
:103EE000A3F50A7307F1A801874A184608F0C4FF32
:103EF000B7F8D4321846FCF705FB04460D4607F523
:103F00002E73A3F5FC730022002145EC104B1846DC
:103F1000FDF71AFB07F52E73A3F5107307F1C00226
:103F200007F19001184608F0BEFF07F52E73A3F5C0
:103F3000167307F17801754A184608F09DFF07F1DE
:103F4000600319467248FFF727FE07F16003184621
:103F500013F0C6F807F17803184613F0C1F807F11B
:103F6000C003184613F0BCF807F19003184613F08D
:103F7000B7F807F1A803184613F0B2F807F52E7347
:103F8000A3F5CC7007F52E73A3F52D731A6861495C
:103F900008F0D2FB07F52E73A3F5D87307F59071DF
:103FA000594A184608F068FFB7F8D4321846FCF7AB
:103FB000A9FA04460D4607F52E73A3F5C073002237
:103FC000002145EC104B1846FDF7BEFA07F52E739D
:103FD000A3F5E47307F59C7207F58471184608F0A1
:103FE00062FF07F52E73A3F5F07307F1F001474A5E
:103FF000184608F041FF07F1D80207F52E73A3F524
:104000002C731146186801F00BFB07F1D803184612
:1040100013F066F807F1F003184613F061F807F59E
:104020009C73184613F05CF807F58473184613F078
:1040300057F807F59073184613F052F807F52E73EA
:10404000A3F52C731B681B68184612F0E9F907F5F5
:104050002E73A3F52C731B681C6807F52E73A3F54C
:104060002D73186813F0AEFA054607F52E73A3F505
:104070002D73186813F06FF803469AB26FF00103BE
:104080002946204612F01AFA0023C7F8B43274E029
:1040900007F12803184613F0E9F8FFF73FFB07F58F
:1040A0002E73A3F52C731B681C6807F53373184631
:1040B00008F06BFF0246D7F8B4329B0013441A682D
:1040C00007F1280319462046FDF7BAFBFFF726FB48
:1040D00007F536731846FFF786FE0246D7F8B43266
:1040E000934219D207F53673184608F05AFF014675
:1040F000D7F8B42213465B001344DB000B440CE0FA
:10410000000000208C7C0108987C0108A87C010834
:1041100084010020AC7C0108002307F1280107F589
:104120002E72A2F52C701A46006800F06BFD034653
:104130001A4607F52E73A3F52C731B6883F87E20AF
:1041400007F52E73A3F5B47307F1280207F14001B8
:10415000184608F032FF07F5A87207F14003114630
:10416000184612F0C3FF07F5A873184612F0B8FFFF
:10417000D7F8B4320133C7F8B43207F533731846B1
:10418000FFF725FE0246D7F8B432934234BF01232D
:104190000023DBB2002B7FF47BAF07F52E73A3F572
:1041A0002C731B6893F87E30DBB2022B0CBF01230B
:1041B0000023DBB2002B3CD007F5C073C7F8903268
:1041C00007F5C07207F5B473DB49184613F012FB0C
:1041D00007F5B4731946D948FFF7DEFC07F5B47349
:1041E000184612F07DFF07F5C073184609F06DF808
:1041F00007F5CE73C7F8943207F5CE7207F5C27390
:10420000CD49184613F0F6FA07F5C27207F52E737A
:10421000A3F52C731146186801F002FA07F5C27372
:10422000184612F05DFF07F5CE73184609F04DF8F9
:104230003CE007F5DC73C7F8883207F5DC7207F558
:10424000D073BF49184613F0D5FA07F5D07207F5B9
:104250002E73A3F52C731146186801F0E1F907F5E8
:10426000D073184612F03CFF07F5DC73184609F0CE
:104270002CF807F5EA73C7F88C3207F5EA7207F5F0
:10428000DE73AF49184613F0B5FA07F5DE73194629
:10429000AA48FFF781FC07F5DE73184612F020FFED
:1042A00007F5EA73184609F010F800BF07F5EC733C
:1042B00007F14001A34A184608F0B1FE07F5EC7378
:1042C00019469E48FFF768FC07F5EC73184612F094
:1042D00007FF07F5F87307F140019A4A184608F0FE
:1042E0009EFE07F5F87207F52E73A3F52C731146A1
:1042F000186801F095F907F5F873184612F0F0FE0A
:1043000007F1400300229049184613F095F9C7F8C9
:10431000B00207F1400300228C49184613F08CF9D3
:10432000C7F8AC02D7F8B032B3F1FF3F40D007F185
:104330004003D7F8B0220A21184613F08BF9C7F8CA
:10434000A80207F52E73A3F52C731B6803F1340440
:10435000D7F8A822D7F8B032D31A07F5027007F1C0
:104360004001D7F8B02213F031FA07F5027319466D
:10437000204612F0BBFE07F50273184612F0B0FE9D
:1043800007F52E73A3F52C731B6803F1340207F5B0
:1043900008736F49184608F0CFF907F508731946F6
:1043A0006648FFF7F9FB07F50873184612F098FE08
:1043B000D7F8AC32B3F1FF3F70D007F14003D7F824
:1043C000AC220A21184613F045F9C7F8A40207F5F4
:1043D0000E7007F14001D7F8A432D7F8AC2213F0E1
:1043E000F5F907F50E7207F110031146184612F0A1
:1043F0007DFE07F50E73184612F072FE07F11003EA
:104400004FF0FF322C21184613F076F9C7F8A002BE
:10441000D7F8A032B3F1FF3F40D0D7F8A0325A1CF2
:1044200007F5147007F110014FF0FF3313F0CEF9C8
:1044300007F5147207F110031146184612F056FEE4
:1044400007F51473184612F04BFE04E007F1100351
:10445000184612F069FF07F11003184612F022FF08
:1044600003461B780A2B08D007F11003184612F0F8
:1044700019FF03461B780D2B01D1012300E0002317
:10448000002BE3D107F52E73A3F52C731B684C3377
:1044900007F110021146184612F08FFEFFF73EF9A1
:1044A00007F52E73A3F52C731B6893F87E30DBB2EF
:1044B000022B09D007F52E73A3F52C731B6893F814
:1044C0007E30DBB2042B01D1012300E00023002B5E
:1044D0000DD0204B02221A7007F1400207F52E730F
:1044E000A3F52B731146186812F0DBFD4FE007F5BA
:1044F0002E73A3F52C731B6893F87E30DBB2052B6B
:1045000009D107F52E73A3F52C731B6893F87E3041
:10451000DBB2062B01D0012300E00023002B1BD0CF
:10452000B7F8D432012B03D90A4B01221A7017E0D5
:10453000084B00221A7013E0B47C010884010020AB
:10454000BC7C0108C47C0108CC7C0108D87C010833
:10455000E47C010800000020344B00221A700CE0BB
:10456000B7F8D4325A1EA7F8D422002B14BF012367
:104570000023DBB2002B7FF4A5AC07F1400207F566
:104580002E73A3F52B731146186812F08AFD07F1FC
:104590001003184612F0A4FD07F12803184612F084
:1045A0009FFD07F14003184612F09AFD28E007F539
:1045B0001A7007F52E73A3F52D731A681C4908F0BD
:1045C000BBF807F51A7319461A48FFF7E5FA07F51D
:1045D0001A73184612F084FD07F52073C7F8843269
:1045E00007F5207207F52E73A3F52B73124918688F
:1045F00013F000F907F52073184608F066FE00BFB7
:1046000007F52E73A3F52B7307F52E72A2F52B7207
:1046100012681A6007F52E73A3F52B73186807F557
:104620002E77BD46BDE8B04002B0704700000020C4
:10463000F47C010884010020707C0108B0B5ADF560
:10464000027D00AF07F50274A4F5FE74206007F543
:104650000270A0F50070016007F50271A1F502710A
:1046600081E80C00A84B1B78DBB2022B0CBF0123A6
:104670000023DBB2002B00F09E82FFF74FF807F11A
:104680002C03C7F8003207F12C0307F11400202295
:1046900041F2883112F0FCFC07F12C03184608F0B7
:1046A00014FED7F8240212F0E1FD07F50273A3F51A
:1046B00000730D21186812F0FAFD07F50273A3F5D7
:1046C00000730A21186812F0F2FD61E207F5027327
:1046D000A3F5C87007F50273A3F500731A688B4938
:1046E00008F02AF807F50273A3F5D47307F17801EF
:1046F000874A184608F0C0FBB7F818321846FBF78F
:1047000001FF04460D4607F50273A3F5BC730022B2
:10471000002145EC104B1846FCF716FF07F5027315
:10472000A3F5E07307F1900207F16001184608F065
:10473000BAFB07F50273A3F5EC7307F14801754A5C
:10474000184608F099FB07F1300319467248FFF745
:1047500023FA07F13003184612F0C2FC07F14803B0
:10476000184612F0BDFC07F19003184612F0B8FC91
:1047700007F16003184612F0B3FC07F178031846FE
:1047800012F0AEFC07F50273A3F58C7007F5027307
:10479000A3F500731A68614907F0CEFF07F50273AD
:1047A000A3F5987307F1F001594A184608F064FB25
:1047B000B7F818321846FBF7A5FE04460D4607F574
:1047C0000273A3F580730022002145EC104B1846BC
:1047D000FCF7BAFE07F50273A3F5A47307F584721C
:1047E00007F1D801184608F05EFB07F50273A3F540
:1047F000B07307F1C001474A184608F03DFB07F1C6
:10480000A80207F50273A3F5FE731146186800F0BD
:1048100007FF07F1A803184612F062FC07F1C00376
:10482000184612F05DFC07F58473184612F058FC28
:1048300007F1D803184612F053FC07F1F0031846AD
:1048400012F04EFC07F50273A3F5FE731B681B689C
:10485000184611F0E5FD07F50273A3F5FE731B681A
:104860001C6807F50273A3F50073186812F0AAFE1E
:10487000054607F50273A3F50073186812F06BFC88
:1048800003469AB26FF001032946204611F016FE46
:104890000023C7F8043271E007F11403184612F040
:1048A000E5FCFEF73BFF07F50273A3F5FE731B68FB
:1048B0001C683B46184608F068FB0246D7F80432ED
:1048C0009B0013441A6807F1140319462046FCF7AD
:1048D000B7FFFEF723FF07F507731846FFF783FAC4
:1048E0000246D7F8043293421AD207F507731846E6
:1048F00008F057FB0146D7F8042213465B00134427
:10490000DB000B440DE000BF000000208C7C0108A0
:10491000987C0108A87C010884010020AC7C010877
:10492000002307F1140107F50272A2F5FE701A4682
:10493000006800F067F903461A4607F50273A3F50D
:10494000FE731B6883F87E2007F5907307F114024D
:10495000D7F82412184608F030FB07F59073194673
:10496000D7F8240212F0C2FB07F59073184612F034
:10497000B7FBD7F804320133C7F804323B46184678
:10498000FFF725FA0246D7F80432934234BF0123D9
:104990000023DBB2002B7FF47FAF07F50273A3F592
:1049A000FE731B6893F87E30DBB2022B0CBF012331
:1049B0000023DBB2002B3CD007F5A873C7F8F83111
:1049C00007F5A87207F59C738849184612F012FF84
:1049D00007F59C7319468648FFF7DEF807F59C73C8
:1049E000184612F07DFB07F5A873184608F06DFC19
:1049F00007F5B673C7F8FC3107F5B67207F5AA7369
:104A00007A49184612F0F6FE07F5AA7207F5027306
:104A1000A3F5FE731146186800F002FE07F5AA73AD
:104A2000184612F05DFB07F5B673184608F04DFC0A
:104A30003CE007F5C473C7F8F03107F5C47207F519
:104A4000B8736C49184612F0D5FE07F5B87207F531
:104A50000273A3F5FE731146186800F0E1FD07F537
:104A6000B873184612F03CFB07F5C473184608F0FB
:104A70002CFC07F5D273C7F8F43107F5D27207F5AD
:104A8000C6735C49184612F0B5FE07F5C6731946A1
:104A90005748FFF781F807F5C673184612F020FB58
:104AA00007F5D273184608F010FC00BF07F5D47361
:104AB000514AD7F82412184608F0B1FA07F5D47312
:104AC00019464B48FFF768F807F5D473184612F0FB
:104AD00007FB07F5E073484AD7F82412184608F098
:104AE0009EFA07F5E07207F50273A3F5FE7311460F
:104AF000186800F095FD07F5E073184612F0F0FA1B
:104B0000FEF70CFE07F50273A3F5FE731B6893F81E
:104B10007E30DBB2022B09D007F50273A3F5FE73DA
:104B20001B6893F87E30DBB2042B01D1012300E037
:104B30000023002B03D0314B02221A7028E007F526
:104B40000273A3F5FE731B6893F87E30DBB2052B6E
:104B500009D107F50273A3F5FE731B6893F87E3045
:104B6000DBB2062B01D0012300E00023002B0BD089
:104B7000B7F81832012B03D9204B01221A7007E035
:104B80001E4B00221A7003E01C4B00221A700CE02E
:104B9000B7F818325A1EA7F81822002B14BF0123A9
:104BA0000023DBB2002B7FF491AD07F1140318460C
:104BB00012F096FA14E007F5EC7007F50273A3F50E
:104BC00000731A680E4907F0B7FD07F5EC73194634
:104BD0000748FEF7E1FF07F5EC73184612F080FA7C
:104BE00000BF07F50277BD46B0BD00BFB47C010829
:104BF00084010020BC7C0108C47C01080000002066
:104C0000F47C010890B585B000AFF860B9607A60B7
:104C10007B68002B01D1022363E0BC68786812F046
:104C2000D1FC034600221946204612F005FD03463A
:104C3000B3F1FF3F06D12D49786808F01CFA03460E
:104C4000002B01D0012300E00023002B48D0BC68DA
:104C5000786812F0B7FC034600221946204612F08D
:104C6000EBFC0346B3F1FF3F06D12049786808F01A
:104C700002FA0346002B01D0012300E00023002BA1
:104C800001D002232DE000221949B86812F0D4FCAB
:104C90000346B3F1FF3F0CBF01230023DBB2002B1F
:104CA0001ED000221249B86812F0C6FC0346B3F1C8
:104CB000FF3F0CBF01230023DBB2002B01D00623F2
:104CC0000FE0B86812F047FA0346002B0CBF01232F
:104CD0000023DBB2002B01D0052302E0072300E014
:104CE000072318461437BD4690BD00BF707C0108ED
:104CF000047D0108B0B5C4B004AF786007F58073D7
:104D0000A3F58073196007F1080007F58073A3F518
:104D100080731A68664907F00FFD07F15003C7F862
:104D2000FC3007F1500207F138036249184612F0CF
:104D300061FD4FF4FA63FB6507F15C037B650123BA
:104D4000BB6507F1080207F168031146184612F027
:104D5000F2FC07F168033B6601237B6607F1200440
:104D600007F1380202AD07F1600393E8030085E81C
:104D7000030001230193BB6D00937B6D796820468E
:104D8000FFF73EF807F12003184612F0A9F907F1E2
:104D90006804183407F168039C4204D0183C20468C
:104DA00012F09EF9F6E707F13803184612F098F969
:104DB00007F15003184608F088FA3F4B1B78DBB226
:104DC000022B14BF01230023DBB2002B66D03A4B29
:104DD00002221A7007F1B00307F10802374918469A
:104DE00007F0AAFC07F1980307F1B001344A18460E
:104DF00008F042F84FF4FA63C7F8D03007F1D00357
:104E0000C7F8C8300123C7F8CC3007F1F403C7F85E
:104E1000F83007F1F40207F1DC032A49184612F0D2
:104E2000E9FC07F1DC03C7F8D4300123C7F8D83018
:104E300007F1800407F1980202AD07F1D40393E86B
:104E4000030085E8030001230193D7F8CC300093D9
:104E5000D7F8C83079682046FEF7D2FF07F1800303
:104E6000184612F03DF907F1DC04183407F1DC03B1
:104E70009C4204D0183C204612F032F9F6E707F1C4
:104E8000F403184608F021FA07F19803184612F0C7
:104E900027F907F1B003184612F022F907F10803C9
:104EA000184612F01DF907F58077BD46B0BD00BF6A
:104EB0000C7D0108147D010800000020247D0108FC
:104EC000387D01083C7D0108F0B5ADF52D7D04AFBE
:104ED00007F52873A3F52773186007F52873A3F562
:104EE000287319600120FEF78FFD07F52873A3F5DD
:104EF000287307F108021968104612F01CFC07F12C
:104F0000080207F52873A3F5277311461868FFF701
:104F1000F1FE07F10803184612F0E2F807F150031A
:104F2000C7F8943207F1500207F13803D049184608
:104F300012F060FC07F52873A3F51173CD4A92E8CF
:104F4000030083E8030007F52873A3F5137307F143
:104F50005C021A6007F52873A3F5137302225A60E6
:104F600007F19C03C7F8983207F19C0207F16C0324
:104F7000C149184612F03EFC07F1A003C7F89C3265
:104F800007F1A00207F16C031833BC49184612F070
:104F900031FC07F52873A3F50F7307F16C021A6053
:104FA00007F52873A3F50F7302225A6007F52873DB
:104FB000A3F5207507F52873A3F5137307F13806D9
:104FC00007F52872A2F5277407F52872A2F50F716C
:104FD00002AA03C982E80300012201925A680092E2
:104FE0001B68324621682846FEF70AFF07F12003B6
:104FF000184612F075F807F16C04303407F16C03B1
:105000009C4204D0183C204612F06AF8F6E707F1FB
:10501000A003184608F059F907F19C03184608F058
:1050200054F907F13803184612F05AF807F1500303
:10503000184608F04AF907F1D403C7F88C3207F193
:10504000D40207F1BC038E49184612F0D3FB07F5D2
:105050002873A3F5E0734FF47A721A6007F528738A
:10506000A3F5E47307F1E0021A6007F52873A3F5CE
:10507000E47301225A6007F58273C7F8903207F58E
:10508000827207F1EC037F49184612F0B3FB07F573
:105090002873A3F5DE7307F1EC021A6007F5287395
:1050A000A3F5DE7301225A6007F52873A3F5FE7598
:1050B00007F52873A3F5E47307F1BC0607F528721A
:1050C000A2F5277407F52872A2F5DE7102AA03C9BA
:1050D00082E80300012201925A6800921B6832465E
:1050E00021682846FEF78CFE07F1A403184611F04C
:1050F000F7FF07F1EC04183407F1EC039C4204D0ED
:10510000183C204611F0ECFFF6E707F582731846CD
:1051100008F0DBF807F1BC03184611F0E1FF07F1D6
:10512000D403184608F0D1F8574B1B78DBB2022B9A
:105130000CBF01230023DBB2002B2BD007F5287313
:10514000A3F527731B68012283F87C204F48FEF7E4
:10515000BDFA07F59073C7F8883207F5907207F526
:1051600084734B49184612F045FB07F5847207F526
:105170002873A3F527731146186800F051FA07F554
:105180008473184611F0ACFF07F59073184608F0C9
:105190009CF892E13C4B02221A7007F5AA73C7F8FB
:1051A000803207F5AA7207F59E733449184612F04B
:1051B00021FB07F52873A3F5A07341F288321A602A
:1051C00007F52873A3F5A47307F5B0721A6007F505
:1051D0002873A3F5A47301225A6007F5C273C7F8B8
:1051E000843207F5C27207F5B6732449184612F0E7
:1051F00001FB07F52873A3F59E7307F5B6721A60D5
:1052000007F52873A3F59E7301225A6007F52873EA
:10521000A3F5BE7507F52873A3F5A47307F59E766D
:1052200007F52872A2F5277407F52872A2F59E717A
:1052300002AA03C982E80300012201925A6800927F
:105240001B68324621682846FEF7DAFD07F592739F
:10525000184611F045FF07F5B674183407F5B67314
:105260009C4217D0183C204611F03AFFF6E700BFE9
:10527000407D01088C7D01083C7D0108707C01089F
:10528000507D0108607D01080000002040420F00B1
:10529000707D010807F5C273184608F016F807F587
:1052A0009E73184611F01CFF07F5AA73184608F004
:1052B0000CF807F5DC73C7F8783207F5DC7207F5F0
:1052C000D0738349184612F095FA4FF47A73C7F8F1
:1052D000C43107F5E273C7F8BC310123C7F8C03108
:1052E00007F5F473C7F87C3207F5F47207F5E87335
:1052F0007849184612F07EFA07F5E873C7F8C83106
:105300000123C7F8CC3107F52873A3F58C7507F591
:10531000D07207F52873A3F5277402AE07F5E4737E
:1053200093E8030086E8030001230193D7F8C03116
:105330000093D7F8BC3121682846FEF761FD07F5D8
:10534000C473184611F0CCFE07F5E874183407F55D
:10535000E8739C4204D0183C204611F0C1FEF6E7E9
:1053600007F5F473184607F0B0FF07F5D073184639
:1053700011F0B6FE07F5DC73184607F0A6FF564B92
:105380001B78DBB2022B0CBF01230023DBB2002B06
:105390002BD007F52873A3F527731B68012283F828
:1053A0007C204E48FEF792F907F50173C7F8743276
:1053B00007F5017207F5F6734949184612F01AFA13
:1053C00007F5F67207F52873A3F5277311461868D9
:1053D00000F026F907F5F673184611F081FE07F57F
:1053E0000173184607F071FF67E03B4B02221A7009
:1053F00007F50E73C7F86C3207F50E7207F50873E0
:105400003849184612F0F6F941F28833C7F84432A9
:1054100007F51173C7F83C320123C7F8403207F58E
:105420001A73C7F8703207F51A7207F514732E490C
:10543000184612F0DFF907F51473C7F84832012354
:10544000C7F84C3207F5027507F5087207F528739F
:10545000A3F5277402AE07F5127393E8030086E8FC
:10546000030002230193D7F840320093D7F83C326F
:1054700021682846FEF7C4FC07F50273184611F0B0
:105480002FFE07F51474183407F514739C4204D0EA
:10549000183C204611F024FEF6E707F51A7318466B
:1054A00007F013FF07F50873184611F019FE07F50A
:1054B0000E73184607F009FF00BFFEF7BBFA064B54
:1054C00002221A7000BF07F52977BD46F0BD00BF64
:1054D000507D0108607D01080000002040420F005F
:1054E000707D01087C7D01083C7D0108B0B5A4B049
:1054F00004AFF860B9607A60BB6893F87C30DBB2C7
:10550000012B0BD1434B1B78DBB2022B06D1FEF7EC
:105510006FFA0346002B01D0012300E00023002B8B
:105520006FD03D4B1B7887F87F300020FEF7CCFA18
:10553000BB6893F87E3087F87E30374B02221A70B2
:1055400007F140037B6707F1400207F12803334965
:10555000184612F04FF97B68FB6407F14C037B643B
:105560000123BB6407F17003BB6707F1700207F109
:1055700058032A49184612F03DF907F158033B65D4
:1055800001237B6507F1100407F1280202AD07F142
:10559000500393E8030085E8030001230193BB6CEB
:1055A00000937B6CB9682046FEF72AFC07F11003D4
:1055B000184611F095FD07F15804183407F1580307
:1055C0009C4204D0183C204611F08AFDF6E707F112
:1055D0007003184607F079FE07F12803184611F00A
:1055E0007FFD07F14003184607F06FFE0A4A97F85F
:1055F0007F301370BB6897F87E2083F87E20FEF71B
:1056000074FAFB68B9681846FEF7CCFBF868803777
:10561000BD46B0BD0300002000000020707C0108E2
:10562000F0B5C9B004AF07F58873A3F586731860A9
:1056300007F58873A3F58873196007F58873A3F5D8
:1056400086731B6893F87C30DBB2012B15D107F50C
:105650008873A3F586731B6893F87D30DBB2002B4B
:105660000BD1954B1B78DBB2022B06D1FEF7C0F9AC
:105670000346002B01D0012300E00023002B00F0A3
:1056800015818E4B1B7887F80F3107F58873A3F5CA
:1056900086731B68012283F87D200020FEF714FA30
:1056A000864B02221A7007F58873A3F586731B6870
:1056B00093F87E3087F80E3107F58873A3F5887369
:1056C000186811F048FD03461846FAF71BFF044618
:1056D0000D4607F138030022002145EC104B184617
:1056E000FBF732FF07F1200307F13802744918462F
:1056F00007F082F84FF4FA73BB6507F158033B6576
:1057000001237B6507F17C03C7F8083107F17C02B0
:1057100007F164036B49184612F06CF807F1640353
:10572000FB6501233B6607F58873A3F5847507F1D4
:10573000200207F58873A3F5867402AE07F15C03B7
:1057400093E8030086E80300012301937B6D009337
:105750003B6D21682846FEF753FB07F10803184606
:1057600011F0BEFC07F16404183407F164039C4295
:1057700004D0183C204611F0B3FCF6E707F17C0397
:10578000184607F0A2FD07F12003184611F0A8FC07
:1057900007F13803184611F0A3FC07F58873A3F549
:1057A000887307F198021968104611F0C4FF464A41
:1057B00007F1B80392E8030083E8030007F1B80398
:1057C000C7F8B0300223C7F8B43007F1F803C7F8C0
:1057D000003107F1F80207F1C8033C49184612F0FE
:1057E00009F807F1FC03C7F8043107F1FC0207F1DF
:1057F000C80318333649184611F0FCFF07F1C803F7
:10580000C7F8C0300223C7F8C43007F1800507F19C
:10581000980207F58873A3F5867402AE07F1C003FA
:1058200093E8030086E8030001230193D7F8B4301E
:105830000093D7F8B03021682846FEF7E1FA07F167
:105840008003184611F04CFC07F1C804303407F10E
:10585000C8039C4204D0183C204611F041FCF6E7F6
:1058600007F1FC03184607F030FD07F1F80318466E
:1058700007F02BFD07F19803184611F031FC0F4A91
:1058800097F80F31137007F58873A3F586731B68BB
:1058900097F80E2183F87E2007F58873A3F58673A9
:1058A0001B68002283F87D20FEF71FF900BF07F573
:1058B0008A77BD46F0BD00BF030000200000002035
:1058C000947D0108AC7D0108BC7D01083C7D010888
:1058D000B07D0108F0B5D9B004AF07F5A873A3F502
:1058E000A673186007F13C03C7F8483107F13C0282
:1058F00007F12403A849184611F07CFF07F5A873A7
:10590000A3F584734FF47A721A6007F5A873A3F5B0
:10591000887307F148021A6007F5A873A3F5887326
:1059200001225A6007F16C03C7F84C3107F16C0291
:1059300007F154039949184611F05CFF07F5A87365
:10594000A3F5827307F154021A6007F5A873A3F553
:10595000827301225A6007F5A873A3F5A27507F5B3
:10596000A873A3F5887307F1240607F5A872A2F5BA
:10597000A67407F5A872A2F5827102AA03C982E88B
:105980000300012201925A6800921B683246216886
:105990002846FEF735FA07F10C03184611F0A0FB74
:1059A00007F15404183407F154039C4204D0183C06
:1059B000204611F095FBF6E707F16C03184607F057
:1059C00084FC07F12403184611F08AFB07F13C031D
:1059D000184607F07AFC724B1B78DBB2022B14BF1F
:1059E00001230023DBB2002B09D06D4B02221A7079
:1059F00007F5A873A3F5A6731868FEF7B5F907F1C4
:105A0000A003C7F8403107F1A00207F188036249FB
:105A1000184611F0EFFE4FF47A73C7F8AC3007F177
:105A2000AC03C7F8A4300123C7F8A83007F1D003AE
:105A3000C7F8443107F1D00207F1B80357491846B7
:105A400011F0D8FE07F1B803C7F8B0300123C7F84A
:105A5000B43007F1700507F1880207F5A873A3F5C4
:105A6000A67402AE07F1B00393E8030086E80300D2
:105A700014230193D7F8A8300093D7F8A4302168F5
:105A80002846FEF7BDF907F17003184611F028FB10
:105A900007F1B804183407F1B8039C4204D0183C4D
:105AA000204611F01DFBF6E707F1D003184607F07A
:105AB0000CFC07F18803184611F012FB07F1A00354
:105AC000184607F002FC07F58273C7F8383107F56E
:105AD000827207F1EC033349184611F08BFE4FF444
